:020000040800F2
:1000000070580020E10100084F100008790F000827
:100010004D1000089D020008C713000800000000F2
:10002000000000000000000000000000490100087E
:100030009F020008000000008D010008191100084F
:10004000FB010008FB010008FB010008FB010008A0
:10005000FB010008FB010008A1020008FB010008E9
:10006000A7020008FB010008FB010008FB010008D3
:10007000FB010008FB010008FB010008FB01000870
:10008000FB010008FB010008FB010008FB01000860
:10009000FB010008FB010008FB010008FB01000850
:1000A000FB010008A5110008FB010008FB01000886
:1000B000FB010008FB010008FB010008FB01000830
:1000C000FB010008FB010008FB010008FB01000820
:1000D000FB010008FB010008FB010008FB01000810
:1000E000FB010008FB010008FB010008FB01000800
:1000F000FB010008FB010008FB010008FB010008F0
:10010000FB010008FB010008FB010008FB010008DF
:10011000FB010008FB010008FB010008FB010008CF
:10012000FB010008FB010008FB010008FB010008BF
:10013000DFF810D000F0A0F800480047F9150008DB
:10014000AFF3008070580020224B19680868B0E8AF
:10015000F00F80F30988BFF36F8F4FF0000080F33A
:1001600011884EF00D0E7047000000000648006830
:10017000006880F3088862B661B6BFF34F8FBFF3A3
:100180006F8F00DF00BF00BF08ED00E0EFF30980D4
:10019000BFF36F8F0F4B1A6820E9F00F106008B59E
:1001A0004FF0500080F31188BFF34F8FBFF36F8F74
:1001B00001F0A4FF4FF0000080F31188BDE8084073
:1001C00019680868B0E8F00F80F30988BFF36F8FF3
:1001D000704700BF28000020EFF305807047000043
:1001E0000648804706480047FEE7FEE7FEE7FEE7D1
:1001F000FEE7FEE7FEE7FEE7FEE7FEE7A3110008E5
:100200003101000840EA01039B0703D009E008C957
:10021000121F08C0042AFAD203E011F8013B00F8CB
:10022000013B521EF9D27047D2B201E000F8012B17
:10023000491EFBD270470022F6E710B513460A4666
:1002400004461946FFF7F0FF204610BD30B50B46B7
:10025000014600202022012409E021FA02F59D42F6
:1002600005D303FA02F5491B04FA02F52844151ECA
:10027000A2F10102F1DC30BD064C074D06E0E0685A
:1002800040F0010394E8070098471034AC42F6D3DD
:10029000FFF752FF3C2900085C290008FEE7704781
:1002A000012000F043B8042000F040B872B6FEE729
:1002B00070B50F4E012815D100F040F9D6E90412AF
:1002C00000250446411A65EB0200323970F1000046
:1002D0000AD30021F06802F015F8012805D005A026
:1002E00001F072F8C6E9044570BD09A0F8E7000006
:1002F00000000020E9878AE694BEE4BFA1E58FB73D
:10030000E9878FE5A4B1E8B4A55C720A000000009B
:10031000E9878AE694BEE4BFA1E58FB7E9878FE657
:100320008890E58A9F5C720A00000000044910B5BD
:100330000A68024202D00860FFF7BAFF10BD000051
:10034000140401402DE9F84FDFF8C8910024A9F109
:10035000040B23460F2709F1040AABF1040ED1E088
:100360000125A54006EA0502AA4276D1DFF8A8C118
:100370004E68A6EB0C0866452BD00DDC032E34D05E
:1003800005DC36B3012E19D0022E2FD11BE0112E21
:1003900016D0122E2AD119E0B8F5881F19D006DC24
:1003A000B8F5803F15D0B8F5801F1FD111E0B8F522
:1003B000001F0ED0B8F5041F18D10AE0CB6815E075
:1003C000CB681B1D12E0CB6808330FE0CB680C3301
:1003D0000CE08B682BB1012B4FF0080303D0456173
:1003E00004E0042302E0056100E00023FF2A01D8B5
:1003F000064601E000F104064FEA840501D9A5F1A3
:100400002005D6F8008007FA05FC28EA0C0803FA54
:1004100005F548EA0508C6F800804D68ED0070D57E
:100420003E4DAE6946F00106AE61AD6924F00306AB
:1004300005F0010500953A4D06EB050CDCF8085077
:10044000A607360F07FA06F825EA0805DFF8D48074
:10045000404503D14FF0000825E052E0DFF8C880A6
:10046000404502D14FF001081DE0DFF8C080404553
:1004700002D14FF0020816E0DFF8B480404502D107
:100480004FF003080FE0DFF8AC80404502D14FF099
:10049000040808E0DFF8A080404502D14FF00508CD
:1004A00001E04FF0060808FA06F848EA0508CCF81B
:1004B00008804D68D9F80060ED024D4601D516431D
:1004C00000E096432E604D68DAF80060AD025546B4
:1004D00001D5164300E096432E604D68DBF80060BE
:1004E000AD035D4601D5164300E096432E604D688E
:1004F000DEF80060ED03754601D5164300E0964333
:100500002E60641C0A681646E2407FF429AFBDE8FD
:10051000F88F000008040140000011100010024094
:100520000000014000080140000C014000100140A3
:100530000014014000180140001C0140014880687F
:1005400070470000180000200248816802781144BA
:100550008160704718000020074810B5016841F01D
:1005600010010160032000F0A1F80F2000F006F850
:1005700000F04AF8002010BD0020024030B50546CA
:100580001C4887B0816941F400618161806906A9D6
:1005900000F40060009001A800F030F900F05EF96E
:1005A0001549164AB0FBF1F11548491E0260416039
:1005B00040F2E7320021C0E903218160816100F04F
:1005C00015FB040012D10E4800F03EFB04000DD1D3
:1005D000192000F03DF8102D07D2002229461920DD
:1005E00000F044F80748056000E0012407B0204609
:1005F00030BD00000010024040420F00002C0140BE
:10060000380300201C0000200F4808B5816941F024
:1006100001018161816901F001010091C16941F02D
:100620008051C161C069002200F0805000900F210C
:10063000901E00F01BF80548416821F0E06141F090
:100640000071416008BD0000001002400000014040
:10065000002809DB00F01F020121914040098000C1
:1006600000F1E020C0F8001170470000F0B40E4B1C
:100670001B680C46C3F30223C3F10705042D00D900
:100680000425191D072901D2002300E0DB1E0126E5
:1006900006FA05F1491E214099409E40761E1640FB
:1006A0003143F0BC00F0A0BE0CED00E0064900F0C4
:1006B000070208684FF6FF03184040EA0220034A89
:1006C00010430860704700000CED00E00000FA05E0
:1006D0002DE9F0470F46050061D0434E306800F029
:1006E0000700B84209D2306820F007003843306074
:1006F000306800F00700B84251D128683B4C8107B0
:1007000012D5400703D5606840F4E0606060287847
:10071000000703D5606840F4605060606068A968B5
:1007200020F0F000084360602878C00728D068688F
:10073000012810D02168022810D0890700292EDA5C
:10074000616821F0030101436160FFF7F7FE804615
:1007500041F288390DE021688903EFE78901EDE76F
:10076000FFF7ECFEA0EB0801494502D90320BDE8E4
:10077000F0876068696800F00C00B0EB810FEFD182
:10078000306800F00700B8420BD9306820F007004D
:1007900038433060306800F00700B84201D00120D3
:1007A000E5E72878400705D56068E96820F4E0604F
:1007B000084360602878000706D56068296920F43E
:1007C000605040EAC100606000F058F86168084A73
:1007D000C1F30311515CC84006490860064800682F
:1007E000FFF7CCFE0020C2E70020024000100240CC
:1007F00016290008240000201C0000200F2202609F
:100800000C4A536803F003034360536803F0F0039A
:100810008360536803F4E063C36052684FF4E0639D
:1008200003EAD20202610448006800F00700086091
:1008300070470000001002400020024004480549B3
:1008400000684968044AC1F30221515CC8407047FE
:100850002400002000100240262900080448054911
:1008600000684968044AC1F3C221515CC84070471E
:100870002400002000100240262900080E4A51687A
:100880000E4801F00C03042B11D0082B0FD10C489B
:10089000C1F38343C903C05C0AD55168084AC1F358
:1008A0004041921E515C054A5043B0FBF1F0704745
:1008B00004494843704700000010024000127A00CB
:1008C0000629000800093D002DE9F84F040070D00A
:1008D0002078C04DC00749D06868C0F38100012866
:1008E00007D06868C0F38100022809D16868C00396
:1008F00006D52868800339D560680028E7D035E040
:100900006068B0F5803F0BD010B1B0F5A02F11D0CA
:10091000286820F480302860286820F4802002E0D5
:10092000286840F480302860606890B1FFF706FEC8
:1009300006460AE0286840F480202860F0E700BFFF
:10094000FFF7FCFD801B642873D828688003F7D567
:100950000CE0FFF7F3FD064605E000BFFFF7EEFDF4
:10096000801B6428F0D828688003F7D420789A4E3A
:1009700080074FF001094FF0000839D5686810F082
:100980000C0F07D06868C0F38100022809D168689D
:10099000C00306D42868800714D52069012808D12F
:1009A00010E02069B0B1C6F80090FFF7C7FD074618
:1009B00005E00AE1FFF7C2FDC01B0228C4D8286881
:1009C0008007F7D52868616920F0F80040EAC10087
:1009D00028600DE0C6F80080FFF7B0FD074604E090
:1009E000FFF7ACFDC01B022823D828688007F7D486
:1009F000207800072CD57948A169D9B1C0F80090BA
:100A0000FFF79CFD074604E0FFF798FDC01B022896
:100A10000FD8686A8007F7D571484FF4FA5100681B
:100A2000B0FBF1F0009000BF0098411E0091FAD297
:100A30000EE080E0C0F80080FFF780FD074604E08C
:100A4000FFF77CFDC01B022875D8686A8007F7D4C1
:100A50002078400760D5E8690027C00008D4E8691D
:100A600040F08050E861E869012700F08050009074
:100A70005C480168C90513D40168834641F480715C
:100A80000160FFF75BFD824606E000BFFFF756FD01
:100A9000A0EB0A0064284ED8DBF80000C005F5D5AD
:100AA000E06801280AD008B1052813D0286A20F090
:100AB00001002862286A20F0040002E0286A40F061
:100AC00001002862E06841F2883B98B1FFF736FDEB
:100AD00082460BE0286A40F004002862EEE700BF7F
:100AE000FFF72CFDA0EB0A0159455AD8286A800768
:100AF000F6D50CE0FFF722FD824605E0FFF71EFD6C
:100B0000A0EB0A0159454CD8286A8007F6D41FB1DA
:100B1000E86920F08050E861E06988B36968C1F352
:100B20008101022944D00228C6F8608004D0FFF772
:100B300005FD044638E034E0FFF700FD074604E019
:100B4000FFF7FCFCC01B02282BD828688001F7D4D3
:100B5000206AB0F5803F05D16868A16820F40030B4
:100B600008436860D4E908010843696821F47411F6
:100B700008436860C6F86090FFF7E0FC044606E0B2
:100B800025E000BFFFF7DAFC001B022809D828681F
:100B90008001F7D51BE000BFFFF7D0FC001B022847
:100BA00002D90320BDE8F88F28688001F4D40EE054
:100BB0000128F7D06868226A00F48031914204D19C
:100BC000616A00F47010884201D00120EAE7002039
:100BD000E8E7000000100240000042428004424268
:100BE00024000020007000407047704710B50400DA
:100BF00003D094F83D0010B107E0012010BD0020A3
:100C000084F83C00204600F01EF8022084F83D00E5
:100C1000211D206800F0CCFA012084F8460084F8F9
:100C20003E0084F83F0084F8400084F8410084F8D6
:100C3000420084F8430084F8440084F8450084F8B6
:100C40003D00002010BD704790F83D10012901D0F3
:100C500001207047022180F83D100168CA6842F007
:100C60000102CA6000680E4988420ED00D498842D0
:100C70000BD0B0F1804F08D00B49884205D00B490A
:100C8000884202D00A49884204D1816801F00701F4
:100C9000062903D0016841F001010160002070477E
:100CA000002C0140003401400004004000080040D6
:100CB000000C004070472DE9F04104460068C6680A
:100CC00005694FF00007A90713D5B10711D5F91E23
:100CD000016101202077206880698007204602D0CA
:100CE000FFF7E8FF04E000F07EF8204600F07CF813
:100CF0002777680716D5700714D521686FF00400B0
:100D00000861022020772068806910F4407F204627
:100D100002D0FFF7CFFF04E000F065F8204600F0B6
:100D200063F82777280715D5300713D521686FF0AA
:100D300008000861042020772068C06980072046E9
:100D400002D0FFF7B7FF04E000F04DF8204600F0B6
:100D50004BF82777E80616D5F00614D521686FF012
:100D600010000861082020772068C06910F4407FD7
:100D7000204602D0FFF79EFF04E000F034F8204642
:100D800000F032F82777E80708D0F00706D021688E
:100D90006FF001000861204600F028F8280608D509
:100DA000300606D521686FF0800008612046FFF705
:100DB0001BFF680608D5700606D521686FF0400055
:100DC0000861204600F01CF8A8060AD5B00608D530
:100DD00021686FF0200008612046BDE8F041FFF770
:100DE00004BFBDE8F0817047704700000068034908
:100DF000884201D1FFF7A8BB70470000002C0140DA
:100E0000704770B5040004D094F84100002510B17B
:100E100006E0012070BD84F84050204600F024F820
:100E2000242084F841002068C16821F40051C16089
:100E3000204600F033FA2068016921F490410161F5
:100E40002068416921F02A0141612068C16841F4AC
:100E50000051C1606564202084F8410084F842009C
:100E60006563002070BD000030B585B0002400949B
:100E700001940294039400681449884224D11448D0
:100E8000816941F480418161816901F4804104916B
:100E9000816941F00401816180690E4D00F0040018
:100EA00004904FF400700090022001900320039002
:100EB00069462846FFF746FA2815CDE90004694639
:100EC00028460294FFF73EFA05B030BD00380140D5
:100ED00000100240000801402DE9F843044690F854
:100EE0004100984616460D46202802D00220BDE853
:100EF000F88385B17EB100206064212084F8410030
:100F0000FFF71CFBA6848146E684A0682027B0F585
:100F1000805F02D003E00120E9E7206910B12E468E
:100F200000250EE000260CE08021204600F012FA99
:100F3000A8B9C6B116F8010B21684860E08C401EC4
:100F4000E084E08C4B464FF00002CDF80080002892
:100F5000EAD14FF04001204600F0FCF940B184F89E
:100F600041700320C3E735F8020BC0F30800E3E744
:100F700084F841700020BAE7FEE7000000B587B0B2
:100F80001C2206496846FFF73DF90021684600F03B
:100F90005DFB0349086007B000BD0000E8280008B9
:100FA0000000002000B585B000200390164881693C
:100FB00041F010018161816901F0100104918169A2
:100FC00041F0040181618069694600F004000490E9
:100FD000052000900D480190012002900C48FFF779
:100FE000B1F9002205210620FFF740FB0620FFF79C
:100FF0002FFB002205210820FFF738FB0820FFF710
:1010000027FB05B000BD00000010024000001110D9
:10101000001001400C4810B50A4901604FF4E1315D
:101020004160002181600C22C160C0E9041281612D
:10103000C161FFF7E6FE002803D0BDE81040FFF7CE
:1010400035B910BD00380140F0020020FEE7FEE790
:101050001CB500F081FE0021642001F0D1F8174991
:10106000C86030B300F029FE014615A000F0ACF9CD
:1010700012490120091DCDE900010023802219A198
:101080001A4801F083FA0D4902200831CDE9000128
:101090000023802216A1184801F078FA002000F001
:1010A00023FF00F079FE4FF47A74204600F0C2FA74
:1010B000FBE712A000F088F9DAE70000000000204A
:1010C000E5BD93E5898DE4BFA1E58FB7E9878FE89A
:1010D000AEA1E695B0E580BCE4B8BAEFBC9A256451
:1010E0000D0A00007461736B31000000C91B000819
:1010F0007461736B320000006D1C0008E5889BE58D
:10110000BBBAE4BFA1E58FB7E9878FE5A4B1E8B426
:10111000A55C720A0000000010B5502080F3118811
:10112000BFF34F8FBFF36F8F01F096FA18B10449E8
:101130004FF080500860002080F3118810BD00003F
:1011400004ED00E030B58FB028216846FFF773F852
:1011500014210AA8FFF76FF801210804CDE9001057
:101160000024029402250491CDE907504FF4E010C9
:1011700009906846FFF7A8FB08B172B6FEE70F209A
:10118000CDE90A054FF48060CDE90C4002210AA8A0
:101190000E94FFF79DFA002801D072B6FEE70FB05B
:1011A00030BD70470148FFF786BD000038030020BE
:1011B000F0B50268204C214D214E224F224B4FF0BA
:1011C000804CA04209D0984207D0604505D0A84283
:1011D00003D0B04201D0B84204D122F0700E4A6868
:1011E00042EA0E02A04209D0984207D0604505D0DD
:1011F000A84203D0B04201D0B84203D122F44075D6
:10120000CA682A434D6922F080022A4302608A6834
:10121000C2620A688262A04201D0984201D1096983
:101220000163012141610169C90703D0016921F00E
:1012300001010161F0BD0000002C014000040040EC
:1012400000080040000C00400034014001680C31EF
:1012500051E8002F22F4907241E80023002BF5D1D1
:101260000168143151E8002F22F0010241E8002307
:10127000002BF5D1016B012909D101680C3151E82E
:10128000002F22F0100241E80023002BF5D120218D
:1012900080F84210002101637047000070B50446D9
:1012A00000680169E26821F440511143016121693C
:1012B000A0680843616908432168CA6841F20C6369
:1012C0009A430243CA6020684169A26921F44071CF
:1012D000114341611E492068884202D1FFF7BEFADE
:1012E00001E0FFF7ABFA00EBC00101EB0012606810
:1012F00064218000B2FBF0F3B3FBF1F36FF018064A
:101300007343B2FBF0F5B2FBF0F605EB8305322335
:1013100003EB0515B5FBF1F5B6FBF1F605F0F005AD
:1013200005EB0615B2FBF0F6B2FBF0F0B0FBF1F006
:101330006FF01802504306EB800003EB0010B0FB87
:10134000F1F0216800F00F002844886070BD0000B3
:10135000003801402DE9F843984617460D460446EB
:10136000089E24E0701C22D0FFF7E8F8A0EB0800EC
:10137000B0421AD8CEB12068C168490717D5802D70
:1013800015D0402D13D00168C94309070FD4016857
:101390000025406800902046FFF758FF0820606451
:1013A00084F840500120BDE8F8830320FBE7206863
:1013B000006835EA000004D00020B842D2D00020F6
:1013C000F1E70120F9E7FEE70FB4054B10B503A9DB
:1013D000044A029800F028F810BC5DF814FB0000E5
:1013E000E1150008900000200907090E002804DB21
:1013F00000F1E02080F80014704700F00F0000F1C9
:10140000E02080F8141D704702E008C8121F08C1D0
:10141000002AFAD170477047002001E001C1121F75
:10142000002AFBD1704700002DE9FF4F8BB09A4690
:101430000F460546002606E025280BD052460D999A
:1014400090476D1C761C28780028F5D10FB03046E7
:10145000BDE8F08F0024A0460122604900E004436B
:1014600015F8013F203B02FA03F00842F7D1287833
:101470002E2817D115F8010F44F004042A280ED0A5
:101480006FF02F022878A0F1300109290AD808EB63
:10149000880102EB410100EB01086D1CF2E757F8EF
:1014A000048B6D1C287869283ED006DC0028CDD03E
:1014B00063280BD0642804D136E0732810D0752837
:1014C0004BD052460D999047761C85E017F8040BD7
:1014D0008DF8000000208DF80100E946012003E0AE
:1014E00057F8049B4FF0FF3061074FF0000401D420
:1014F0000AE0641C44450DDA8442FADB19F8041052
:101500000029F6D106E0641C8442FCDB19F80410C3
:101510000029F8D1264404E019F8010B52460D9930
:101520009047641EF8D257E001CF4FF00A0B002815
:1015300002DA40422D2102E0210504D52B218DF84D
:101540002410012103E0E10705D02021F7E70DF188
:10155000200908910CE00021F9E701CF4FF00A0BB8
:10156000F9E75946FEF772FE01F1300209F8012D44
:101570000028F6D1ADEB090000F1200B600701D483
:101580004FF00108D84502DDA8EB0B0000E0002079
:101590008046002406E009A85246005D0D99904758
:1015A000641C761C08988442F5DB04E03020524627
:1015B0000D999047761CB8F10001A8F10108F5DCFF
:1015C00005E019F8010B52460D999047761CBBF1C6
:1015D0000001ABF1010BF4DC6D1C34E709280100BC
:1015E00013B54FF0FF33012269460248FFF774FC40
:1015F00000981CBDF0020020FEF7AEFFFFF7A2FD31
:10160000FFF7D0FCFFF706FD03A0FFF7DDFEFFF7B5
:10161000B5FC00F016F8FEE748656C6C6F20576F5C
:10162000726C64210D0A000001460020842900D05C
:10163000C81C704710B500B9012000F02FFC002035
:1016400010BD10B500F01CFD002010BD7FB50D468B
:1016500004464169B0F9080081B1A16971B1FFF791
:10166000E3FFD4E905128DE80700D4E900102B460A
:10167000226900F0B8FF039004B070BDFFF7D4FFFB
:1016800003A9CDE90001208A2B4682B2D4E90010DB
:1016900000F07CFF012801D00020EDE70398EBE784
:1016A0002DE9F041184C0F460546E6682068001DFC
:1016B00000F0F0FA38B9206890F82C10012088402A
:1016C000216981432161681C07D137B12168BDE8D8
:1016D000F0410E48091D00F033BB20683544B54287
:1016E0004560216805D2A06BBDE8F041091D00F0FE
:1016F0000FBB606B091D00F00BFBA06A854200D296
:10170000A562BDE8F0810000280000205C040020F4
:101710002DE9F041054600F01FFB2E4CA068401C4F
:10172000A06020682C4F10B1606940B32DE02560A7
:10173000A068012829D1002606EB860007EB80006F
:1017400000F0D8FA761C072EF6D323488C3000F030
:10175000D1FA2148A03000F0CDFA1F48B43000F093
:10176000C9FA1D48C83000F0C5FA1B48DC3000F04B
:10177000C1FA19488C3060631430A06305E020681A
:10178000E96AC06A884200D82560606A401C6062CD
:101790006864E96A0120226988401043206101EBF6
:1017A000810007EB8000291D00F0CAFA00F0F4FA6E
:1017B000606900280CD02068E96AC06A884207D2B4
:1017C00006494FF080500860BFF34F8FBFF36F8F13
:1017D000BDE8F081280000208003002004ED00E037
:1017E00010B5044690F8590058B101280CD00228D1
:1017F0000FD0502080F31188BFF34F8FBFF36F8F4E
:10180000FEE7206B00F0DCFA2046BDE8104000F057
:10181000D7BA10BD10484FF4A041420706D0C01DF2
:101820000D4920F00700411AC1F5A0410B4A0023E1
:101830000144C2E900030839183A21F00701116098
:101840004B600B600B1AC0E9001393604FF000402F
:101850005360506170470000700400207C0000203D
:10186000144E154CA6F1C8074FF08058DFF84C9085
:1018700012E000BF00F070FAF068C568281D00F0A3
:1018800009FAA068401EA0606068401E606000F019
:1018900083FA2846FFF7A4FF60680028EAD1386879
:1018A0000128F9D9C9F80080BFF34F8FBFF36F8FBC
:1018B000F2E70000480400202800002004ED00E0CA
:1018C00070B51D46049C51B1C4F80020C4E90F0155
:1018D0000121204600F0D2FC84F84C5070BD2460F9
:1018E000F4E700002DE9F05F8846DDE90B9415462A
:1018F000834691009A460A9EA522206BFEF794FC2F
:101900006FF00301206B01EB8501084420F007070D
:10191000780707D0502080F31188BFF34F8FBFF3B3
:101920006F8FFEE70025B8F1000F0FD05FF00000C9
:10193000221818F8001082F8341018F8001011B1AD
:10194000401C1028F4D384F8435001E084F834504C
:10195000072E00D30626E662C4E91365201D00F0B9
:10196000D4F904F1180000F0D0F92461C6F10700A1
:101970006462A061656584F85850524659463846FD
:1019800000F010F92060B9F1000F01D0C9F8004053
:10199000BDE8F09F30B5114900E011460A68824267
:1019A000FBD34B685C18844203D1406818444860FC
:1019B000084643681C18944209D1084C183C246816
:1019C000A24209D052681A4442600A681268026052
:1019D000814200D0086030BD0460F9E77C0000203F
:1019E00010B5044600F0B8F9A06B28B15FF0000410
:1019F00000F0D2F9204610BD0124F9E70648416BFA
:101A0000096829B1416BC968C96849688162704732
:101A10004FF0FF31FAE70000280000200848406836
:101A2000401C4FF0500080F3118804D0BFF34F8F5B
:101A3000BFF36F8FFEE7BFF34F8FBFF36F8FFEE7EC
:101A4000840000202DE9F041044600F085F994F966
:101A5000455004F1240609E0606A48B1304600F0C0
:101A6000A7FE08B100F09EFA6D1E6DB2002DF3DCEA
:101A70004FF0FF3684F8456000F08EF900F06CF905
:101A800094F9445004F1100709E0206948B1384640
:101A900000F08EFE08B100F085FA6D1E6DB2002DCB
:101AA000F3DC84F84460BDE8F04100F075B9000053
:101AB0002DE9F0410546002700F018FB324E306852
:101AC00008B9FFF7A7FE706905424ED1C5B30835C6
:101AD00068070ED005F00700C0F10800054468074C
:101AE00007D0502080F31188BFF34F8FBFF36F8F63
:101AF000FEE72DB37068854237D823481830014679
:101B00000C6801E020460C466168A94202D22168B7
:101B10000029F7D131688C4227D00768216801601D
:101B200060680837411B10290FD96019420708D097
:101B3000502080F31188BFF34F8FBFF36F8FFEE704
:101B400013E041606560FFF725FF61687068401A27
:101B50007060B268904200D2B060706901430020AA
:101B6000C4E90001F068401CF06000F05BFE7807FB
:101B700007D0502080F31188BFF34F8FBFF36F8FD2
:101B8000FEE73846BDE8F08164000020044908689B
:101B900018B10868026D521C0265086870470000A1
:101BA0002800002010B5031F4FF080741C601B1F1D
:101BB00021F001011960191F024B0B6014394038E4
:101BC0000A6010BD1D1A00084FF0FF350D4C4FF490
:101BD0007A762946206800F0E3FB012806D00AA0A7
:101BE000FFF7F2FB304600F059F9F2E70EA0FFF7DD
:101BF000EBFB206800F061F8014611A0FFF7E4FB61
:101C0000F0E700000C0000207461736B31E88EB7C0
:101C1000E58F96E4BFA1E58FB7E9878FE8B685E643
:101C200097B65C720A0000007461736B31E88EB77E
:101C3000E5BE97E4BFA1E58FB7E9878F5C720A0024
:101C4000E4BBBBE58AA1312CE5BD93E5898DE4BFFA
:101C5000A1E58FB7E9878FE8AEA1E695B0E580BC36
:101C6000E4B8BAEFBC9A25640D0A00004FF47A7408
:101C700003A0FFF7A9FB204600F010F9F8E70000E9
:101C80007461736B32E8BF90E8A18C2E2E2E2E0D5E
:101C90000A000000D0E9013201699A60D0E901230D
:101CA0005A604A68824201D182684A600022026119
:101CB0000868401E08600868704710B5040006D028
:101CC00000F04AF8A46B00F067F8204610BD5020E1
:101CD00080F31188BFF34F8FBFF36F8FFEE70000D3
:101CE000034B036003F15C000860802010607047C4
:101CF0009400002000F108014FF0FF32C0E901120A
:101D0000C1600161002101607047002101617047DD
:101D100030B50B685A1C02D000F1080202E00269DB
:101D200004E02246546825689D42FAD953684B6006
:101D300099608A60516008610168491C016030BD8A
:101D400042684A6093688B6093685960916008614B
:101D50000168491C01607047502080F31188BFF36F
:101D60004F8FBFF36F8F0A494868401C48600128B5
:101D70000CD10848006810F0FF0F07D0502080F306
:101D80001188BFF34F8FBFF36F8FFEE770470000DE
:101D90008400002004ED00E00849486828B1401E96
:101DA000486001D180F311887047502080F311887A
:101DB000BFF34F8FBFF36F8FFEE70000840000205A
:101DC00070B500282AD0164DA0F108046068696932
:101DD000084207D1502080F31188BFF34F8FBFF323
:101DE0006F8FFEE722683AB1502080F31188BFF36D
:101DF0004F8FBFF36F8FFEE78843606000F076F986
:101E000060686968084468602046FFF7C3FD286978
:101E1000401C2861BDE8704000F004BD70BD0000AA
:101E2000640000204FF0E02000210161816105493C
:101E30004FF47A720968B1FBF2F1491E4161072142
:101E4000016170472400002010B5FEF7C5F9114963
:101E500010280ED300F1E02090F8F0030A789042A9
:101E600007D2502080F31188BFF34F8FBFF36F8FDD
:101E7000FEE709480068896800F4E060884207D9F5
:101E8000502080F31188BFF34F8FBFF36F8FFEE7B1
:101E900010BD0000840000200CED00E010B5020031
:101EA00014D00F48006B38B1502080F31188BFF375
:101EB0004F8FBFF36F8FFEE700F018F90021104637
:101EC000FFF7EEFB00F0AEFC002807D105494FF00C
:101ED00080500860BFF34F8FBFF36F8F10BD0000BD
:101EE0002800002004ED00E070B50546FFF734FF40
:101EF000254C05B92568281DFFF7CCFE58B9E86ABE
:101F0000224A00EB800152F8211021B901218140C1
:101F1000206988432061A86A18B105F11800FFF70D
:101F2000B9FE606A401C60622068854208D117488B
:101F3000291DC830FFF704FF6068401C606007E09F
:101F4000A068401EA0602846FFF74AFCFFF756FD38
:101F5000FFF722FF6069002814D02068854211D164
:101F6000206B38B1502080F31188BFF34F8FBFF33F
:101F70006F8FFEE706494FF080500860BFF34F8F28
:101F8000BFF36F8F70BD0000280000208003002089
:101F900004ED00E002490A6A0260C96841607047C6
:101FA0002800002001490120C86170472800002056
:101FB00010B50C4650B1094909681831FFF7A8FE61
:101FC0002046BDE810400121FFF76ABB502080F396
:101FD0001188BFF34F8FBFF36F8FFEE728000020FB
:101FE00070B5040047D0226DA2B1E06C884200D3E6
:101FF0000146E06A88423ED0012A3CD11E4D2A6843
:1020000094420FD1502080F31188BFF34F8FBFF35C
:102010006F8FFEE7502080F31188BFF34F8FBFF31F
:102020006F8FFEE7E162A269002A02DBC1F10701BE
:10203000A161124E00EB8000616906EB80008142D5
:1020400019D1201DFFF726FE012130B994F82C008C
:102050002A6901FA00F082432A61E06A2A69814014
:102060001143296100EB800006EB8000211DBDE8D3
:102070007040FFF765BE70BD28000020800300207F
:1020800010B586B00024039405AA04A903A80494FB
:10209000FFF726FEDDE903010094CDE901100023DE
:1020A0000EA11048059A00F09EFA0F490028C86258
:1020B00011D0502080F31188BFF34F8FBFF36F8F83
:1020C0004FF0FF30886201204861CC6006B0BDE867
:1020D000104000F041B806B010BD000049444C4526
:1020E0000000000061180008280000200248016B71
:1020F000491C016370470000280000201448016B50
:1021000011B10121C16170470021C1610169B1FABA
:1021100081F1C1F11F0101EB81020E4951F822301A
:102120006BB101EB820101F108034A6852684A6011
:102130009A4201D152684A60D168016070475020CC
:1021400080F31188BFF34F8FBFF36F8FFEE700005E
:1021500028000020800300201CB526490878019043
:10216000FF20087008788DF800009DF800009DF8A9
:10217000002000F0F000904207D0502080F311883A
:10218000BFF34F8FBFF36F8FFEE79DF800001A4C2F
:1021900000F0500020700720A06005E09DF80020AE
:1021A00052008DF80020401E9DF800201206F5D444
:1021B000A060032807D0502080F31188BFF34F8F11
:1021C000BFF36F8FFEE74FF44070A0600198087076
:1021D0000A48016841F470010160016841F07041F2
:1021E0000160FFF71FFE00206060FDF7BFFF0020C9
:1021F0001CBD000000E400E08400002020ED00E0B1
:1022000010B50C4648B184420FD9502080F3118894
:10221000BFF34F8FBFF36F8FFEE7502080F311881D
:10222000BFF34F8FBFF36F8FFEE70222002100F054
:1022300004F8002800D0846310BDF8B517460E4698
:10224000050013D005FB06F05030FFF731FC040009
:102250000AD0002084F8460004F150023B46314683
:1022600028460094FFF72CFB2046F8BD502080F351
:102270001188BFF34F8FBFF36F8FFEE770B50D4628
:10228000040025D0FFF768FDD4E90F20216802FB88
:102290000011A1600021A163216861600A46D4E9B0
:1022A0000F01401E00FB0121E16021464FF0FF308D
:1022B00001F8440F487004F110008DB1FFF71AFDCA
:1022C00004F12400FFF716FDFFF766FD012070BD45
:1022D000502080F31188BFF34F8FBFF36F8FFEE75D
:1022E00021690029F0D000F063FA0028ECD00449FD
:1022F0004FF080500860BFF34F8FBFF36F8FE3E75D
:1023000004ED00E070B50E46040009D0206C78B1F1
:10231000502080F31188BFF34F8FBFF36F8FFEE71C
:10232000502080F31188BFF34F8FBFF36F8FFEE70C
:10233000206848B9A06838B1502080F31188BFF3F5
:102340004F8FBFF36F8FFEE7FFF77EFD5020EFF357
:10235000118580F31188BFF34F8FBFF36F8FA16B8F
:10236000E06B884218D994F94500491CA163411CCF
:1023700004D0401C84F8450001200EE0606A00286B
:10238000FAD004F1240000F013FA0028F4D0002E53
:10239000F2D001203060EFE7002085F3118870BD96
:1023A0002DE9F343002683B00400354609D0206CA4
:1023B00078B1502080F31188BFF34F8FBFF36F8F38
:1023C000FEE7502080F31188BFF34F8FBFF36F8F6C
:1023D000FEE700F033F9DFF83C814FF000094FF0E1
:1023E000805748B9049838B1502080F31188BFF362
:1023F0004F8FBFF36F8FFEE7FFF7AEFCA06BC8B146
:10240000401EA063206810B9FFF7C0FBA0602069E0
:1024100050B104F1100000F0CBF928B1C8F80070F9
:10242000BFF34F8FBFF36F8FFFF7B6FC012005B0EE
:10243000BDE8F083049808B166B10FE03DB15020CB
:1024400080F31188BFF34F8FBFF36F8FFEE7FFF765
:10245000A3FC5DE06846FFF79DFD0126FFF79CFCAD
:10246000FFF744FEFFF778FC94F94400401C01D1CB
:1024700084F8449094F94500401C01D184F84590BB
:10248000FFF78AFC04A9684600F046F800282046B9
:1024900012D0FFF7D7FA00F0C5F92046FFF7A0FAEF
:1024A0000028A9D09DB3FFF757FC606A50B3206B9A
:1024B0000068C0F1070126E0FFF792FAE0B120685A
:1024C00038B9FFF749FCA06800F02CF90546FFF782
:1024D00063FC04F124000499FFF76AFD2046FFF72E
:1024E000B1FA00F09FF9002886D1C8F80070BFF358
:1024F0004F8FBFF36F8F7FE72046FFF7A3FA00F0FF
:1025000091F979E70021A068FFF76AFD9FE7FFE7EF
:1025100000208CE704ED00E02DE9F0410C460500B9
:1025200011D0C4B1FFF718FC174BDA686E68206849
:10253000911B471C17D02F681B6A9F4219D09642E7
:1025400017D8012410E0502080F31188BFF34F8F7B
:10255000BFF36F8FFEE7502080F31188BFF34F8FDA
:10256000BFF36F8FFEE70024FFF716FC2046BDE89F
:10257000F081884205D9401A20602846FFF70AFDFD
:10258000F1E700202060DCE7280000202DE9FF5F54
:102590008346DDE90E87994616468A469000FFF786
:1025A00087FA05001CD05C20FFF782FA040014D0E3
:1025B0000020256384F85900CDE90240CDE9008769
:1025C0004B46324651465846FFF78CF92046FFF7F6
:1025D0009FF8012004B0BDE8F09F2846FFF7F0FB0C
:1025E0004FF0FF30F6E7F0B585B0DDE90B640A9DEA
:1025F000A6B1DCB15C2700972663022684F85960F7
:10260000002604AFCDE90246CDE90057FFF76AF98D
:102610002046FFF77DF8049805B0F0BD502080F308
:102620001188BFF34F8FBFF36F8FFEE7502080F309
:102630001188BFF34F8FBFF36F8FFEE705484169E5
:1026400019B1006B18B100207047012070470220BB
:1026500070470000280000202DE9F0412F4C002693
:10266000206B28B1A069401CA0613046BDE8F08114
:10267000E5686D1CE56013D1606B006838B15020CF
:1026800080F31188BFF34F8FBFF36F8FFEE7606B4E
:10269000A16B6163A063206A401C2062FFF7AEF962
:1026A000A06ADFF87C80854209D3606B0068A0B126
:1026B000606BC068C7687868854211D2A0622068E4
:1026C000C06A00EB800158F82100012800D90126DA
:1026D000E0690028C9D00126C7E74FF0FF30EDE7D9
:1026E000381DFFF7D7FAB86A18B107F11800FFF7DD
:1026F000D1FAF96A0120226988401043206101EB78
:10270000810108EB8100391DFFF71AFBF86A216887
:10271000C96A8842C9D30126C7E700002800002003
:102720008003002070B504004FF0000034D01E4D2F
:10273000E16A2A68D26A91422FD2A069002804DB9C
:102740002868C06AC0F10700A061184E01EB810142
:10275000606906EB810188421AD1201DFFF79AFAC1
:10276000012130B994F82C002A6901FA00F0824363
:102770002A612868C06AE0622A69814011432961A0
:1027800000EB800006EB8000211DFFF7D9FA02E084
:102790002868C06AE062012070BDE16C2A68D26AD4
:1027A0009142F8D370BD0000280000208003002073
:1027B0002DE9F041C068C468ACB104F118000746C7
:1027C000FFF768FA154D286B0126A0B13946144869
:1027D000FFF7B6FAE06A2968C96A88421CD9012065
:1027E000EE61BDE8F081502080F31188BFF34F8F78
:1027F000BFF36F8FFEE7201DFFF74CFAE16A2A69ED
:1028000006FA01F01043286101EB81000449B43954
:1028100001EB8000211DDBE70020E2E7280000201B
:10282000340400202DE9F0472C4D00242746286B66
:1028300038B1FFF791FA286B401E2863286B40B12E
:1028400046E0502080F31188BFF34F8FBFF36F8FA6
:10285000FEE7A968224E0120D1B3A6F1B409804653
:102860003068E8B1F068C46804F11800FFF712FAA4
:10287000201DFFF70FFAE06A2A6908FA00F11143F8
:10288000296100EB800109EB8100211DFFF758FA57
:10289000E06A2968C96A8842E2D3C5F81C80DFE78C
:1028A0000CB1FFF7ABF8AC6944B14646FFF7D4FE74
:1028B00000B1EE61641EF9D10020A861E86938B169
:1028C0000849012738070860BFF34F8FBFF36F8FA8
:1028D000FFF762FA3846BDE8F087000028000020C4
:1028E0003404002004ED00E03029000851100008F5
:1028F00000000000000000000001000000000000D7
:1029000000000000010202030405060708090A0B83
:102910000C0D0E0F1010000000000000000001025E
:102920000304060708090000000001020304000078
:1029300064656661756C745461736B005C29000892
:10294000000000209400000008140008F02900088E
:1029500094000020DC57000018140008000000005C
:102960000000000000000000000000000000000067
:102970000000000001000000100000000000000046
:1029800000127A00000000000000000000000000BB
:102990000000000000000000000000000000000037
:1029A0000000000000000000000000000000000027
:1029B0000000000000000000000000000000000017
:1029C0000000000000000000000000000000000007
:1029D00000000000000000000000000000000000F7
:1029E00000000000AAAAAAAA00000000000000003F
:0400000508000131BD
:00000001FF
