:020000040800F2
:10000000705A0020E10100083F100008690F000845
:100010003D100008BD020008E313000800000000C6
:10002000000000000000000000000000490100087E
:10003000BF020008000000008D0100083511000813
:10004000FB010008FB010008FB010008FB010008A0
:10005000FB010008FB010008C1020008FB010008C9
:10006000C7020008FB010008FB010008FB010008B3
:10007000FB010008FB010008FB010008FB01000870
:10008000FB010008FB010008FB010008FB01000860
:10009000FB010008FB010008FB010008FB01000850
:1000A000FB010008C1110008FB010008FB0100086A
:1000B000FB010008FB010008FB010008FB01000830
:1000C000FB010008FB010008FB010008FB01000820
:1000D000FB010008FB010008FB010008FB01000810
:1000E000FB010008FB010008FB010008FB01000800
:1000F000FB010008FB010008FB010008FB010008F0
:10010000FB010008FB010008FB010008FB010008DF
:10011000FB010008FB010008FB010008FB010008CF
:10012000FB010008FB010008FB010008FB010008BF
:10013000DFF810D000F0B0F800480047BD16000806
:10014000AFF30080705A0020224B19680868B0E8AD
:10015000F00F80F30988BFF36F8F4FF0000080F33A
:1001600011884EF00D0E7047000000000648006830
:10017000006880F3088862B661B6BFF34F8FBFF3A3
:100180006F8F00DF00BF00BF08ED00E0EFF30980D4
:10019000BFF36F8F0F4B1A6820E9F00F106008B59E
:1001A0004FF0500080F31188BFF34F8FBFF36F8F74
:1001B00002F00AF94FF0000080F31188BDE8084012
:1001C00019680868B0E8F00F80F30988BFF36F8FF3
:1001D000704700BF30000020EFF30580704700003B
:1001E0000648804706480047FEE7FEE7FEE7FEE7D1
:1001F000FEE7FEE7FEE7FEE7FEE7FEE7BF110008C9
:100200003101000840EA01039B0703D009E008C957
:10021000121F08C0042AFAD203E011F8013B00F8CB
:10022000013B521EF9D27047D2B201E000F8012B17
:10023000491EFBD270470022F6E710B513460A4666
:1002400004461946FFF7F0FF204610BD421C10F887
:10025000011B0029FBD1801A7047034611F8012BBE
:1002600000F8012B002AF9D11846704730B50B462B
:10027000014600202022012409E021FA02F59D42D6
:1002800005D303FA02F5491B04FA02F52844151EAA
:10029000A2F10102F1DC30BD064C074D06E0E0683A
:1002A00040F0010394E8070098471034AC42F6D3BD
:1002B000FFF742FF6027000880270008FEE770472D
:1002C000012000F02BB8042000F028B872B6FEE739
:1002D00070B50E4E012813D100F028F9D6E90612A8
:1002E00000250446411A65EB0200643970F10000F4
:1002F00008D307A001F076F8307820B100203070E4
:10030000C6E9064570BD0120F9E7000000000020A5
:10031000707265737365640D0A000000044910B5BE
:100320000A68024202D00860FFF7D2FF10BD000049
:10033000140401402DE9F84FDFF8C8910024A9F119
:10034000040B23460F2709F1040AABF1040ED1E098
:100350000125A54006EA0502AA4276D1DFF8A8C128
:100360004E68A6EB0C0866452BD00DDC032E34D06E
:1003700005DC36B3012E19D0022E2FD11BE0112E31
:1003800016D0122E2AD119E0B8F5881F19D006DC34
:10039000B8F5803F15D0B8F5801F1FD111E0B8F532
:1003A000001F0ED0B8F5041F18D10AE0CB6815E085
:1003B000CB681B1D12E0CB6808330FE0CB680C3311
:1003C0000CE08B682BB1012B4FF0080303D0456183
:1003D00004E0042302E0056100E00023FF2A01D8C5
:1003E000064601E000F104064FEA840501D9A5F1B3
:1003F0002005D6F8008007FA05FC28EA0C0803FA65
:1004000005F548EA0508C6F800804D68ED0070D58E
:100410003E4DAE6946F00106AE61AD6924F00306BB
:1004200005F0010500953A4D06EB050CDCF8085087
:10043000A607360F07FA06F825EA0805DFF8D48084
:10044000404503D14FF0000825E052E0DFF8C880B6
:10045000404502D14FF001081DE0DFF8C080404563
:1004600002D14FF0020816E0DFF8B480404502D117
:100470004FF003080FE0DFF8AC80404502D14FF0A9
:10048000040808E0DFF8A080404502D14FF00508DD
:1004900001E04FF0060808FA06F848EA0508CCF82B
:1004A00008804D68D9F80060ED024D4601D516432D
:1004B00000E096432E604D68DAF80060AD025546C4
:1004C00001D5164300E096432E604D68DBF80060CE
:1004D000AD035D4601D5164300E096432E604D689E
:1004E000DEF80060ED03754601D5164300E0964343
:1004F0002E60641C0A681646E2407FF429AFBDE80E
:10050000F88F0000080401400000111000100240A4
:100510000000014000080140000C014000100140B3
:100520000014014000180140001C0140014880688F
:1005300070470000200000200248816802781144C2
:100540008160704720000020074810B5016841F025
:1005500010010160032000F0A1F80F2000F006F860
:1005600000F04AF8002010BD0020024030B50546DA
:100570001C4887B0816941F400618161806906A9E6
:1005800000F40060009001A800F030F900F05EF97E
:100590001549164AB0FBF1F11548491E0260416049
:1005A00040F2E7320021C0E903218160816100F05F
:1005B00015FB040012D10E4800F03EFB04000DD1E3
:1005C000192000F03DF8102D07D2002229461920ED
:1005D00000F044F80748056000E0012407B0204619
:1005E00030BD00000010024040420F00002C0140CE
:1005F00044030020240000200F4808B5816941F021
:1006000001018161816901F001010091C16941F03D
:100610008051C161C069002200F0805000900F211C
:10062000901E00F01BF80548416821F0E06141F0A0
:100630000071416008BD0000001002400000014050
:10064000002809DB00F01F020121914040098000D1
:1006500000F1E020C0F8001170470000F0B40E4B2C
:100660001B680C46C3F30223C3F10705042D00D910
:100670000425191D072901D2002300E0DB1E0126F5
:1006800006FA05F1491E214099409E40761E16400B
:100690003143F0BC00F0CABE0CED00E0064900F0AA
:1006A000070208684FF6FF03184040EA0220034A99
:1006B00010430860704700000CED00E00000FA05F0
:1006C0002DE9F0470F46050061D0434E306800F039
:1006D0000700B84209D2306820F007003843306084
:1006E000306800F00700B84251D128683B4C8107C0
:1006F00012D5400703D5606840F4E0606060287858
:10070000000703D5606840F4605060606068A968C5
:1007100020F0F000084360602878C00728D068689F
:10072000012810D02168022810D0890700292EDA6C
:10073000616821F0030101436160FFF7F7FE804625
:1007400041F288390DE021688903EFE78901EDE77F
:10075000FFF7ECFEA0EB0801494502D90320BDE8F4
:10076000F0876068696800F00C00B0EB810FEFD192
:10077000306800F00700B8420BD9306820F007005D
:1007800038433060306800F00700B84201D00120E3
:10079000E5E72878400705D56068E96820F4E0605F
:1007A000084360602878000706D56068296920F44E
:1007B000605040EAC100606000F058F86168084A83
:1007C000C1F30311515CC84006490860064800683F
:1007D000FFF7CCFE0020C2E70020024000100240DC
:1007E0003A2700082C000020240000200F2202607D
:1007F0000C4A536803F003034360536803F0F003AB
:100800008360536803F4E063C36052684FF4E063AD
:1008100003EAD20202610448006800F007000860A1
:1008200070470000001002400020024004480549C3
:1008300000684968044AC1F30221515CC84070470E
:100840002C000020001002404A27000804480549F7
:1008500000684968044AC1F3C221515CC84070472E
:100860002C000020001002404A2700080E4A516860
:100870000E4801F00C03042B11D0082B0FD10C48AB
:10088000C1F38343C903C05C0AD55168084AC1F368
:100890004041921E515C054A5043B0FBF1F0704755
:1008A00004494843704700000010024000127A00DB
:1008B0002A27000800093D002DE9F84F040070D0F8
:1008C0002078C04DC00749D06868C0F38100012876
:1008D00007D06868C0F38100022809D16868C003A6
:1008E00006D52868800339D560680028E7D035E050
:1008F0006068B0F5803F0BD010B1B0F5A02F11D0DB
:10090000286820F480302860286820F4802002E0E5
:10091000286840F480302860606890B1FFF706FED8
:1009200006460AE0286840F480202860F0E700BF0F
:10093000FFF7FCFD801B642873D828688003F7D577
:100940000CE0FFF7F3FD064605E000BFFFF7EEFD04
:10095000801B6428F0D828688003F7D420789A4E4A
:1009600080074FF001094FF0000839D5686810F092
:100970000C0F07D06868C0F38100022809D16868AD
:10098000C00306D42868800714D52069012808D13F
:1009900010E02069B0B1C6F80090FFF7C7FD074628
:1009A00005E00AE1FFF7C2FDC01B0228C4D8286891
:1009B0008007F7D52868616920F0F80040EAC10097
:1009C00028600DE0C6F80080FFF7B0FD074604E0A0
:1009D000FFF7ACFDC01B022823D828688007F7D496
:1009E000207800072CD57948A169D9B1C0F80090CA
:1009F000FFF79CFD074604E0FFF798FDC01B0228A7
:100A00000FD8686A8007F7D571484FF4FA5100682B
:100A1000B0FBF1F0009000BF0098411E0091FAD2A7
:100A20000EE080E0C0F80080FFF780FD074604E09C
:100A3000FFF77CFDC01B022875D8686A8007F7D4D1
:100A40002078400760D5E8690027C00008D4E8692D
:100A500040F08050E861E869012700F08050009084
:100A60005C480168C90513D40168834641F480716C
:100A70000160FFF75BFD824606E000BFFFF756FD11
:100A8000A0EB0A0064284ED8DBF80000C005F5D5BD
:100A9000E06801280AD008B1052813D0286A20F0A0
:100AA00001002862286A20F0040002E0286A40F071
:100AB00001002862E06841F2883B98B1FFF736FDFB
:100AC00082460BE0286A40F004002862EEE700BF8F
:100AD000FFF72CFDA0EB0A0159455AD8286A800778
:100AE000F6D50CE0FFF722FD824605E0FFF71EFD7C
:100AF000A0EB0A0159454CD8286A8007F6D41FB1EB
:100B0000E86920F08050E861E06988B36968C1F362
:100B10008101022944D00228C6F8608004D0FFF782
:100B200005FD044638E034E0FFF700FD074604E029
:100B3000FFF7FCFCC01B02282BD828688001F7D4E3
:100B4000206AB0F5803F05D16868A16820F40030C4
:100B500008436860D4E908010843696821F4741106
:100B600008436860C6F86090FFF7E0FC044606E0C2
:100B700025E000BFFFF7DAFC001B022809D828682F
:100B80008001F7D51BE000BFFFF7D0FC001B022857
:100B900002D90320BDE8F88F28688001F4D40EE064
:100BA0000128F7D06868226A00F48031914204D1AC
:100BB000616A00F47010884201D00120EAE7002049
:100BC000E8E7000000100240000042428004424278
:100BD0002C000020007000407047704710B50400E2
:100BE00003D094F83D0010B107E0012010BD0020B3
:100BF00084F83C00204600F01EF8022084F83D00F6
:100C0000211D206800F0E2FA012084F8460084F8F3
:100C10003E0084F83F0084F8400084F8410084F8E6
:100C2000420084F8430084F8440084F8450084F8C6
:100C30003D00002010BD704790F83D10012901D003
:100C400001207047022180F83D100168CA6842F017
:100C50000102CA6000680E4988420ED00D498842E0
:100C60000BD0B0F1804F08D00B49884205D00B491A
:100C7000884202D00A49884204D1816801F0070104
:100C8000062903D0016841F001010160002070478E
:100C9000002C0140003401400004004000080040E6
:100CA000000C004070472DE9F04104460068C6681A
:100CB00005694FF00007A90713D5B10711D5F91E33
:100CC000016101202077206880698007204602D0DA
:100CD000FFF7E8FF04E000F07EF8204600F07CF823
:100CE0002777680716D5700714D521686FF00400C0
:100CF0000861022020772068806910F4407F204638
:100D000002D0FFF7CFFF04E000F065F8204600F0C6
:100D100063F82777280715D5300713D521686FF0BA
:100D200008000861042020772068C06980072046F9
:100D300002D0FFF7B7FF04E000F04DF8204600F0C6
:100D40004BF82777E80616D5F00614D521686FF022
:100D500010000861082020772068C06910F4407FE7
:100D6000204602D0FFF79EFF04E000F034F8204652
:100D700000F032F82777E80708D0F00706D021689E
:100D80006FF001000861204600F028F8280608D519
:100D9000300606D521686FF0800008612046FFF715
:100DA0001BFF680608D5700606D521686FF0400065
:100DB0000861204600F01CF8A8060AD5B00608D540
:100DC00021686FF0200008612046BDE8F041FFF780
:100DD00004BFBDE8F0817047704700000068034918
:100DE000884201D1FFF7A8BB70470000002C0140EA
:100DF000704770B5040004D094F84100002510B18C
:100E000006E0012070BD84F84050204600F024F830
:100E1000242084F841002068C16821F40051C16099
:100E2000204600F049FA2068016921F490410161EF
:100E30002068416921F02A0141612068C16841F4BC
:100E40000051C1606564202084F8410084F84200AC
:100E50006563002070BD000030B585B000240094AB
:100E600001940294039400681449884224D11448E0
:100E7000816941F480418161816901F4804104917B
:100E8000816941F00401816180690E4D00F0040028
:100E900004904FF400700090022001900320039012
:100EA00069462846FFF746FA2815CDE90004694649
:100EB00028460294FFF73EFA05B030BD00380140E5
:100EC00000100240000801402DE9F843044690F864
:100ED0004100984616460D46202802D00220BDE863
:100EE000F88385B17EB100206064212084F8410040
:100EF000FFF71CFBA6848146E684A0682027B0F596
:100F0000805F02D003E00120E9E7206910B12E469E
:100F100000250EE000260CE08021204600F028FA93
:100F2000A8B9C6B116F8010B21684860E08C401ED4
:100F3000E084E08C4B464FF00002CDF800800028A2
:100F4000EAD14FF04001204600F012FA40B184F897
:100F500041700320C3E735F8020BC0F30800E3E754
:100F600084F841700020BAE7FEE7000000B587B0C2
:100F70001C2206496846FFF745F90021684600F043
:100F8000C7FB0349486007B000BD00000C270008FC
:100F90000000002000B585B000200390164881694C
:100FA00041F010018161816901F0100104918169B2
:100FB00041F0040181618069694600F004000490F9
:100FC000052000900D480190012002900C48FFF789
:100FD000B1F9002205210620FFF740FB0620FFF7AC
:100FE0002FFB002205210820FFF738FB0820FFF720
:100FF00027FB05B000BD00000010024000001110EA
:10100000001001400C4810B50A4901604FF4E1316D
:101010004160002181600C22C160C0E9041281613D
:10102000C161FFF7E6FE002803D0BDE81040FFF7DE
:101030004DB910BD00380140FC020020FEE7FEE77C
:101040001CB500F051FF21490120CDE9000100232A
:1010500080221FA1204801F039FA1C490220091DF5
:10106000CDE90001002380221CA11E4801F02EFAC8
:10107000164803240C30CDE90040002380221AA139
:101080001B4801F023FA114800230830CDE9004045
:10109000802218A11B4801F019FA0146012802D04C
:1010A00019A000F09FF9094C083CA06801F026F94E
:1010B000E06801F023F9002000F0B4FF00F034FFF5
:1010C0004FF47A74204600F017FBFBE7080000207D
:1010D0007461736B31000000A91C00087461736BAC
:1010E00032000000D11C00087461736B33000000F3
:1010F000F91C000873686F775461736B496E666FF3
:1011000000000000551C00085461736B20332063FD
:1011100072656174696F6E206661696C6564212017
:101120004572726F7220636F64653A2025640D0A00
:101130000000000010B5502080F31188BFF34F8FDE
:10114000BFF36F8F01F01AFA18B104494FF08050C5
:101150000860002080F3118810BD000004ED00E05D
:1011600030B58FB028216846FFF765F814210AA82A
:10117000FFF761F801210804CDE900100024029472
:1011800002250491CDE907504FF4E010099068461C
:10119000FFF792FB08B172B6FEE70F20CDE90A0512
:1011A0004FF48060CDE90C4002210AA80E94FFF7AD
:1011B00087FA002801D072B6FEE70FB030BD704745
:1011C0000148FFF770BD000044030020F0B502683D
:1011D000204C214D214E224F224B4FF0804CA042FB
:1011E00009D0984207D0604505D0A84203D0B0424C
:1011F00001D0B84204D122F0700E4A6842EA0E02D1
:10120000A04209D0984207D0604505D0A84203D03B
:10121000B04201D0B84203D122F44075CA682A43D3
:101220004D6922F080022A4302608A68C2620A681D
:101230008262A04201D0984201D109690163012173
:1012400041610169C90703D0016921F00101016110
:10125000F0BD0000002C01400004004000080040E8
:10126000000C00400034014001680C3151E8002FAF
:1012700022F4907241E80023002BF5D1016814316B
:1012800051E8002F22F0010241E80023002BF5D1A4
:10129000016B012909D101680C3151E8002F22F0BE
:1012A000100241E80023002BF5D1202180F84210E4
:1012B000002101637047000070B5044600680169B1
:1012C000E26821F44051114301612169A06808439B
:1012D000616908432168CA6841F20C639A4302437A
:1012E000CA6020684169A26921F4407111434161DB
:1012F0001E492068884202D1FFF7A8FA01E0FFF7F3
:1013000095FA00EBC00101EB0012606864218000D7
:10131000B2FBF0F3B3FBF1F36FF018067343B2FBCB
:10132000F0F5B2FBF0F605EB8305322303EB051570
:10133000B5FBF1F5B6FBF1F605F0F00505EB06158A
:10134000B2FBF0F6B2FBF0F0B0FBF1F06FF0180278
:10135000504306EB800003EB0010B0FBF1F0216876
:1013600000F00F002844886070BD00000038014084
:101370002DE9F843984617460D460446089E24E09A
:10138000701C22D0FFF7D2F8A0EB0800B0421AD8A8
:10139000CEB12068C168490717D5802D15D0402DE2
:1013A00013D00168C94309070FD4016800254068BC
:1013B00000902046FFF758FF0820606484F84050F2
:1013C0000120BDE8F8830320FBE72068006835EAC8
:1013D000000004D00020B842D2D00020F1E7012064
:1013E000F9E7FEE70FB4054B10B503A9044A0298CC
:1013F00000F03CF810BC5DF814FB0000A5160008D6
:101400009C0000200FB4084B10B504A902AA039851
:1014100000F02CF8044602A9002000F003F9204651
:1014200010BC5DF814FB0000251600080907090E22
:10143000002804DB00F1E02080F80014704700F081
:101440000F0000F1E02080F8141D704702E008C88A
:10145000121F08C1002AFAD170477047002001E02E
:1014600001C1121F002AFBD1704700002DE9FF4F78
:101470008BB09A460F460546002606E025280BD07D
:1014800052460D9990476D1C761C28780028F5D19E
:101490000FB03046BDE8F08F0024A046012260491D
:1014A00000E0044315F8013F203B02FA03F0084234
:1014B000F7D128782E2817D115F8010F44F004042D
:1014C0002A280ED06FF02F022878A0F130010929C8
:1014D0000AD808EB880102EB410100EB01086D1C02
:1014E000F2E757F8048B6D1C287869283ED006DC9B
:1014F0000028CDD063280BD0642804D136E07328AF
:1015000010D075284BD052460D999047761C85E037
:1015100017F8040B8DF8000000208DF80100E94653
:10152000012003E057F8049B4FF0FF3061074FF0B4
:10153000000401D40AE0641C44450DDA8442FADB5D
:1015400019F804100029F6D106E0641C8442FCDB83
:1015500019F804100029F8D1264404E019F8010B09
:1015600052460D999047641EF8D257E001CF4FF0D4
:101570000A0B002802DA40422D2102E0210504D5A1
:101580002B218DF82410012103E0E10705D0202153
:10159000F7E70DF1200908910CE00021F9E701CFF0
:1015A0004FF00A0BF9E75946FEF760FE01F13002F1
:1015B00009F8012D0028F6D1ADEB090000F1200B50
:1015C000600701D44FF00108D84502DDA8EB0B00FD
:1015D00000E000208046002406E009A85246005D95
:1015E0000D999047641C761C08988442F5DB04E052
:1015F000302052460D999047761CB8F10001A8F1B1
:101600000108F5DC05E019F8010B52460D999047E9
:10161000761CBBF10001ABF1010BF4DC6D1C34E76F
:10162000092801000A68531C0B6010707047000005
:101630002DE9F041040006D0184E306884420AD1EA
:101640000020BDE8F081502080F31188BFF34F8F58
:10165000BFF36F8FFEE700F047FC6569776BB66BF1
:1016600000F062FCBD4201D0B54201D10220E8E7A2
:101670000B48854208D1A06A0028F7D194F8580099
:101680000128F3D00320DCE705481438854202D056
:101690000DB10120D5E70420D3E700003000002081
:1016A0006804002013B54FF0FF3301226946024859
:1016B000FFF70AFC00981CBDFC020020FEF744FF67
:1016C000FFF74EFDFFF766FCFFF79CFC03A0FFF75A
:1016D00089FEFFF74BFC00F016F8FEE748656C6CDE
:1016E0006F20576F726C64210D0A000001460020C4
:1016F000842900D0C81C704710B500B9012000F043
:101700006BFC002010BD10B500F0C2FD002010BD24
:101710007FB50D4604464169B0F9080081B1A16961
:1017200071B1FFF7E3FFD4E905128DE80700D4E9B2
:1017300000102B46226900F0F6FE039004B070BD45
:10174000FFF7D4FF03A9CDE90001208A2B4682B21E
:10175000D4E9001000F0BAFE012801D00020EDE726
:101760000398EBE72DE9F041184C0F460546E66873
:101770002068001D00F014FB38B9206890F82C1088
:1017800001208840216981432161681C07D137B15C
:101790002168BDE8F0410E48091D00F099BB2068A2
:1017A0003544B5424560216805D2A06BBDE8F041E3
:1017B000091D00F075BB606B091D00F071FBA06A8C
:1017C000854200D2A562BDE8F08100003000002013
:1017D000680400202DE9F041054600F085FB2E4C01
:1017E000A068401CA06020682C4F10B1606940B315
:1017F0002DE02560A068012829D1002606EB86008F
:1018000007EB800000F03EFB761C072EF6D3234842
:101810008C3000F037FB2148A03000F033FB1F482C
:10182000B43000F02FFB1D48C83000F02BFB1B48E4
:10183000DC3000F027FB19488C3060631430A06363
:1018400005E02068E96AC06A884200D82560606ABD
:10185000401C60626864E96A012022698840104384
:10186000206101EB810007EB8000291D00F030FBB7
:1018700000F05AFB606900280CD02068E96AC06A51
:10188000884207D206494FF080500860BFF34F8F5F
:10189000BFF36F8FBDE8F081300000208C03002083
:1018A00004ED00E010B5044690F8590058B1012845
:1018B0000CD002280FD0502080F31188BFF34F8F37
:1018C000BFF36F8FFEE7206B00F042FB2046BDE8C0
:1018D000104000F03DBB10BD10484FF4A04142073E
:1018E00006D0C01D0D4920F00700411AC1F5A041E6
:1018F0000B4A00230144C2E900030839183A21F0D9
:10190000070111604B600B600B1AC0E90013936074
:101910004FF0004053605061704700007C0400208D
:1019200084000020144E154CA6F1C8074FF08058D3
:10193000DFF84C9012E000BF00F0D6FAF068C568FE
:10194000281D00F02DFAA068401EA0606068401EAF
:10195000606000F0E9FA2846FFF7A4FF60680028FD
:10196000EAD138680128F9D9C9F80080BFF34F8F50
:10197000BFF36F8FF2E70000540400203000002016
:1019800004ED00E02DE9F05F8846DDE90B94154693
:10199000834691009A460A9EA522206BFEF744FCDE
:1019A0006FF00301206B01EB8501084420F007076D
:1019B000780707D0502080F31188BFF34F8FBFF313
:1019C0006F8FFEE70025B8F1000F0FD05FF0000029
:1019D000221818F8001082F8341018F8001011B10D
:1019E000401C1028F4D384F8435001E084F83450AC
:1019F000072E00D30626E662C4E91365201D00F019
:101A00004CFA04F1180000F048FA2461C6F107000E
:101A10006462A061656584F858505246594638465C
:101A200000F006F92060B9F1000F01D0C9F80040BC
:101A3000BDE8F09F30B5114900E011460A688242C6
:101A4000FBD34B685C18844203D14068184448605B
:101A5000084643681C18944209D1084C183C246875
:101A6000A24209D052681A4442600A6812680260B1
:101A7000814200D0086030BD0460F9E78400002096
:101A80002DE9F0478146086892460C46002600B3CF
:101A9000606804F1080540686060A84201D14168AF
:101AA00061606068D0F80C80606840686060A8423F
:101AB00001D141686160606806EBC60109EB8101F4
:101AC000C76853460122384600F002FB761C4745A2
:101AD000EAD13046BDE8F0870648416B096829B174
:101AE000416BC968C9684968816270474FF0FF312E
:101AF000FAE700003000002008484068401C4FF022
:101B0000500080F3118804D0BFF34F8FBFF36F8F65
:101B1000FEE7BFF34F8FBFF36F8FFEE78C0000200F
:101B2000002150B10A4B42699A420FD1806AA3F159
:101B3000280290420AD040B108E0502080F311887A
:101B4000BFF34F8FBFF36F8FFEE701210846704749
:101B5000680400202DE9F0410546002700F02CFC28
:101B6000324E306808B9FFF7B7FE706905424ED1B2
:101B7000C5B3083568070ED005F00700C0F10800AE
:101B80000544680707D0502080F31188BFF34F8FBA
:101B9000BFF36F8FFEE72DB37068854237D82348B7
:101BA000183001460C6801E020460C466168A942E5
:101BB00002D221680029F7D131688C4227D007680A
:101BC0002168016060680837411B10290FD960192E
:101BD000420708D0502080F31188BFF34F8FBFF326
:101BE0006F8FFEE713E041606560FFF723FF6168D8
:101BF0007068401A7060B268904200D2B06070693C
:101C000001430020C4E90001F068401CF06000F0CE
:101C10001BFD780707D0502080F31188BFF34F8F4A
:101C2000BFF36F8FFEE73846BDE8F0816C000020FF
:101C300010B5031F4FF080741C601B1F21F00101C1
:101C40001960191F024B0B60143940380A6010BD2F
:101C5000F91A00084FF4FA64064800F079FA0549C9
:101C600005A0FFF7BFFB05A0FFF7BCFB204600F077
:101C7000B3F9F1E77C540020257300003D3D3D3D64
:101C80003D3D3D3D3D3D3D3D3D3D3D3D3D3D3D3D84
:101C90003D3D3D3D3D3D3D3D3D3D3D3D3D3D3D3D74
:101CA0003D3D3D3D0D0A00004FF47A7403A0FFF75F
:101CB00099FB204600F090F9F8E700007461736B1F
:101CC00031E8BF90E8A18C2E2E2E2E0D0A000000C8
:101CD0004FF47A7403A0FFF785FB204600F07CF9EF
:101CE000F8E700007461736B32E8BF90E8A18C2EB6
:101CF0002E2E2E0D0A000000124E134F134C144DC1
:101D00004FF47A7813A0FFF76DFB2078297888428A
:101D10000CD0002830680DD000F07CFA386800F054
:101D200079FA11A0FFF75EFB20782870404600F09A
:101D300053F9E7E700F0E2FA386800F0DFFA11A0A3
:101D4000F0E70000080000200C0000200000002048
:101D5000980000207461736B33E8BF90E8A18C2E6B
:101D60002E2E2E0D0A0000007461736B31E5928CEB
:101D70007461736B32E5B7B2E681A2E5A48D5C7243
:101D80000A0000007461736B31E5928C7461736BAF
:101D900032E5B7B2E68C82E8B5B75C720A000000A3
:101DA000D0E9013201699A60D0E901235A604A689A
:101DB000824201D182684A60002202610868401EA6
:101DC00008600868704700002DE9F04717460A468A
:101DD00005460024072600F0EFFADFF88C80D8F8DB
:101DE000080082423BD3DFF88490761E06EB860122
:101DF00004EBC40009EB810105EB80000122FFF731
:101E00003FFE0444002EF0D104EBC40005EB80003B
:101E100002224646D8F83410FFF732FE044404EBA1
:101E2000C40005EB80000222B16BFFF729FE0444D9
:101E30000E4904EBC40005EB80000422C831FFF713
:101E40001FFE0444094904EBC40005EB8000032293
:101E5000DC31FFF715FE04440FB10020386000F0BC
:101E6000F3FB2046BDE8F087300000208C03002003
:101E7000034B036003F15C00086080201060704732
:101E8000A000002000F108014FF0FF32C0E901126C
:101E9000C16001610021016070470021016170474C
:101EA00030B50B685A1C02D000F1080202E002694A
:101EB00004E02246546825689D42FAD953684B6075
:101EC00099608A60516008610168491C016030BDF9
:101ED00042684A6093688B609368596091600861BA
:101EE0000168491C01607047502080F31188BFF3DE
:101EF0004F8FBFF36F8F0A494868401C4860012824
:101F00000CD10848006810F0FF0F07D0502080F374
:101F10001188BFF34F8FBFF36F8FFEE7704700004C
:101F20008C00002004ED00E00849486828B1401EFC
:101F3000486001D180F311887047502080F31188E8
:101F4000BFF34F8FBFF36F8FFEE700008C000020C0
:101F500070B500282AD0164DA0F1080460686969A0
:101F6000084207D1502080F31188BFF34F8FBFF391
:101F70006F8FFEE722683AB1502080F31188BFF3DB
:101F80004F8FBFF36F8FFEE78843606000F014FA55
:101F900060686968084468602046FFF74BFD28695F
:101FA000401C2861BDE8704000F04EBB70BD0000D1
:101FB0006C0000204FF0E0200021016181610549A3
:101FC0004FF47A720968B1FBF2F1491E41610721B1
:101FD000016170472C00002010B5020014D00F489A
:101FE000006B38B1502080F31188BFF34F8FBFF3DF
:101FF0006F8FFEE700F0E0F900211046FFF7B2FB1B
:1020000000F022FB002807D105494FF080500860FE
:10201000BFF34F8FBFF36F8F10BD00003000002063
:1020200004ED00E070B50546FFF75EFF254C05B9ED
:102030002568281DFFF7B4FE58B9E86A224A00EB6C
:10204000800152F8211021B9012181402069884383
:102050002061A86A18B105F11800FFF7A1FE606AB7
:10206000401C60622068854208D11748291DC8308D
:10207000FFF72EFF6068401C606007E0A068401E0C
:10208000A0602846FFF70EFCFFF726FDFFF74CFF88
:102090006069002814D02068854211D1206B38B1C6
:1020A000502080F31188BFF34F8FBFF36F8FFEE78F
:1020B00006494FF080500860BFF34F8FBFF36F8F1A
:1020C00070BD0000300000208C03002004ED00E013
:1020D0002DE9F0410C461D491646B0B14FEA000506
:1020E00005F13400C4E90050E86A2061286BE06122
:1020F000686CA0600027E86CC4E90507052B12D0C6
:102100000868854203D1277311E00D68E8E723735F
:10211000032B0CD100F050F9A86A08B102202073FB
:1021200000F092FA03E02846FFF782FA20735EB1CE
:102130000021286B01E0401C491C0278A52AFAD036
:1021400088082084BDE8F0812784FBE73000002068
:102150002DE9FC474FF00009044680F8009028481C
:102160008568806800EBC0008000FFF7F3FC070083
:1021700044D000222946FFF727FE8046002536E09E
:1021800005EBC50007EB8006307B052817D2DFE89A
:1021900000F0030510121400582000E0522082467F
:1021A00020467168FEF759F82046FEF74FF82021C7
:1021B00009E04220F3E75320F1E74420EFE7002055
:1021C000EDE72154401C0F28FBD304F80090044491
:1021D000B168308CCDE9000152460AA1204633692E
:1021E000FFF710F92046FEF731F804446D1C454511
:1021F000C6D33846BDE8FC47FFF7AABEBDE8FC875A
:102200003000002009256309257509257509257504
:102210000D0A000070B504002BD01A4D28688442C6
:102220002FD0FFF761FE2046FFF77AFCE8B1201DB2
:10223000FFF7B6FDE06A01212A6981401143296157
:10224000114900EB800001EB8000211DFFF740FEEB
:10225000E06A2968C96A884207D30C494FF0805068
:102260000860BFF34F8FBFF36F8FBDE87040FFF77B
:102270005BBE502080F31188BFF34F8FBFF36F8F89
:10228000FEE770BD300000208C03002004ED00E06C
:1022900010B586B00024039405AA04A903A80494E9
:1022A000FFF7E6FDDDE903010094CDE9011000230D
:1022B0000EA11048059A00F036F90F490028C862AF
:1022C00011D0502080F31188BFF34F8FBFF36F8F71
:1022D0004FF0FF30886201204861CC6006B0BDE855
:1022E000104000F09FB806B010BD000049444C45B6
:1022F00000000000251900083000002070B50446D9
:10230000FFF7F2FD294D04B92C68201DFFF748FDA9
:1023100058B9E06A264A00EB800152F8211021B931
:1023200001218140286988432861A06A18B104F11D
:102330001800FFF735FD1E48211DDC30FFF7C8FDF2
:1023400094F858000026012801D184F85860FFF75E
:10235000EBFD686928B1FFF7C7FDFFF7BDFBFFF78D
:10236000E3FD2868844213D1686990B1286B38B1C5
:10237000502080F31188BFF34F8FBFF36F8FFEE7BC
:102380000C494FF080500860BFF34F8FBFF36F8F41
:1023900070BD0748DC300068A968884201D12E6012
:1023A00070BDBDE8704000F00FB8000030000020A4
:1023B0008C03002004ED00E00248016B491C01631E
:1023C00070470000300000201448016B11B101215A
:1023D000C16170470021C1610169B1FA81F1C1F1A8
:1023E0001F0101EB81020E4951F822306BB101EB64
:1023F000820101F108034A6852684A609A4201D199
:1024000052684A60D16801607047502080F311889B
:10241000BFF34F8FBFF36F8FFEE700003000002047
:102420008C0300201CB5264908780190FF20087015
:1024300008788DF800009DF800009DF8002000F05D
:10244000F000904207D0502080F31188BFF34F8FE7
:10245000BFF36F8FFEE79DF800001A4C00F05000AC
:1024600020700720A06005E09DF8002052008DF844
:102470000020401E9DF800201206F5D4A06003281D
:1024800007D0502080F31188BFF34F8FBFF36F8FB9
:10249000FEE74FF44070A060019808700A48016898
:1024A00041F470010160016841F070410160FFF783
:1024B00081FD00206060FDF759FE00201CBD00007A
:1024C00000E400E08C00002020ED00E02DE9FF5F3B
:1024D0008346DDE90E87994616468A469000FFF747
:1024E00039FB05001CD05C20FFF734FB040014D03E
:1024F0000020256384F85900CDE90240CDE900872A
:102500004B46324651465846FFF73CFA2046FFF705
:1025100061F9012004B0BDE8F09F2846FFF718FDDF
:102520004FF0FF30F6E7F0B585B0DDE90B640A9DAA
:10253000A6B1DCB15C2700972663022684F85960B7
:10254000002604AFCDE90246CDE90057FFF71AFA9D
:102550002046FFF73FF9049805B0F0BD502080F306
:102560001188BFF34F8FBFF36F8FFEE7502080F3CA
:102570001188BFF34F8FBFF36F8FFEE72DE9F04156
:102580002F4C0026206B28B1A069401CA06130466A
:10259000BDE8F081E5686D1CE56013D1606B0068F3
:1025A00038B1502080F31188BFF34F8FBFF36F8F86
:1025B000FEE7606BA16B6163A063206A401C206230
:1025C000FFF78AFAA06ADFF87C80854209D3606B46
:1025D0000068A0B1606BC068C7687868854211D296
:1025E000A0622068C06A00EB800158F82100012831
:1025F00000D90126E0690028C9D00126C7E74FF0BD
:10260000FF30EDE7381DFFF7CBFBB86A18B107F1D3
:102610001800FFF7C5FBF96A0120226988401043C2
:10262000206101EB810108EB8100391DFFF750FCAF
:10263000F86A2168C96A8842C9D30126C7E7000041
:10264000300000208C0300202DE9F0472C4D0024A1
:102650002746286B38B1FFF747FC286B401E2863DC
:10266000286B40B146E0502080F31188BFF34F8FB4
:10267000BFF36F8FFEE7A968224E0120D1B3A6F108
:10268000B40980463068E8B1F068C46804F1180005
:10269000FFF786FB201DFFF783FBE06A2A6908FA33
:1026A00000F11143296100EB800109EB8100211D3C
:1026B000FFF70EFCE06A2968C96A8842E2D3C5F8D0
:1026C0001C80DFE70CB1FFF707FAAC6944B146465E
:1026D000FFF754FF00B1EE61641EF9D10020A8613C
:1026E000E86938B10849012738070860BFF34F8F00
:1026F000BFF36F8FFFF718FC3846BDE8F087000086
:10270000300000204004002004ED00E054270008C1
:10271000411000080000000000000000000100005F
:10272000000000000000000001020203040506078B
:1027300008090A0B0C0D0E0F10100000000000001D
:10274000000001020304060708090000000001025E
:102750000304000064656661756C745461736B00FA
:102760008027000800000020A00000004C14000892
:1027700020280008A0000020D05900005C140008A8
:102780000000000000000000000000000000000049
:102790000000000000000000000000000000000039
:1027A00001000000100000000000000000127A008C
:1027B0000000000000000000000000000000000019
:1027C0000000000000000000000000000000000009
:1027D00000000000000000000000000000000000F9
:1027E00000000000000000000000000000000000E9
:1027F00000000000000000000000000000000000D9
:1028000000000000000000000000000000000000C8
:10281000AAAAAAAA00000000000000000000000010
:0400000508000131BD
:00000001FF
