:020000040800F2
:1000000010620020E1010008C3100008F50F00088D
:10001000C11000089D020008C31300080000000082
:10002000000000000000000000000000490100087E
:100030009F020008000000008D0100082511000843
:10004000FB010008FB010008FB010008FB010008A0
:10005000FB010008FB010008A1020008FB010008E9
:10006000A7020008FB010008FB010008FB010008D3
:10007000FB010008FB010008FB010008FB01000870
:10008000FB010008FB010008FB010008FB01000860
:10009000FB010008FB010008FB010008FB01000850
:1000A000FB010008A1110008FB010008FB0100088A
:1000B000FB010008FB010008FB010008FB01000830
:1000C000FB010008FB010008FB010008FB01000820
:1000D000FB010008FB010008FB010008FB01000810
:1000E000FB010008FB010008FB010008FB01000800
:1000F000FB010008FB010008FB010008FB010008F0
:10010000FB010008FB010008FB010008FB010008DF
:10011000FB010008FB010008FB010008FB010008CF
:10012000FB010008FB010008FB010008FB010008BF
:10013000DFF810D000F0A0F800480047F5150008DF
:10014000AFF3008010620020224B19680868B0E805
:10015000F00F80F30988BFF36F8F4FF0000080F33A
:1001600011884EF00D0E7047000000000648006830
:10017000006880F3088862B661B6BFF34F8FBFF3A3
:100180006F8F00DF00BF00BF08ED00E0EFF30980D4
:10019000BFF36F8F0F4B1A6820E9F00F106008B59E
:1001A0004FF0500080F31188BFF34F8FBFF36F8F74
:1001B00002F086F94FF0000080F31188BDE8084096
:1001C00019680868B0E8F00F80F30988BFF36F8FF3
:1001D000704700BF28000020EFF305807047000043
:1001E0000648804706480047FEE7FEE7FEE7FEE7D1
:1001F000FEE7FEE7FEE7FEE7FEE7FEE79D110008EB
:100200003101000840EA01039B0703D009E008C957
:10021000121F08C0042AFAD203E011F8013B00F8CB
:10022000013B521EF9D27047D2B201E000F8012B17
:10023000491EFBD270470022F6E710B513460A4666
:1002400004461946FFF7F0FF204610BD30B50B46B7
:10025000014600202022012409E021FA02F59D42F6
:1002600005D303FA02F5491B04FA02F52844151ECA
:10027000A2F10102F1DC30BD064C074D06E0E0685A
:1002800040F0010394E8070098471034AC42F6D3DD
:10029000FFF752FF702F0008902F0008FEE770470D
:1002A000012000F081B8042000F07EB872B6FEE7AD
:1002B0002DE9FC470025DFF8C090304F4FF0805803
:1002C0000195012802D004282BD050E000F074F9E9
:1002D000D7E904120646411A65EB020064392C4640
:1002E00070F1000045D326A001F06CF802F04EFC3E
:1002F0000246009501AB0621B86802F0D7FD0198CF
:1003000028B1C9F80080BFF34F8FBFF36F8F02F0A1
:100310003DFC0246009501AB0621F86802F0C6FDDF
:1003200025E000F049F9D7E904120646411A65EBC9
:10033000020064392C4670F100001AD315A001F0B8
:1003400041F8009501AB00220821B86802F0AEFD2B
:10035000009501AB00220821F86802F0A7FD019882
:1003600028B1C9F80080BFF34F8FBFF36F8FC7E983
:100370000464BDE8FC87000004ED00E000000020FC
:10038000E5BC80E590AFE5AE9AE697B6E599A80D95
:100390000A000000E585B3E997ADE5AE9AE697B6A9
:1003A000E599A85C720A0000044910B50A68024287
:1003B00002D00860FFF77CFF10BD0000140401406C
:1003C0002DE9F84FDFF8C8910024A9F1040B23466A
:1003D0000F2709F1040AABF1040ED1E00125A54075
:1003E00006EA0502AA4276D1DFF8A8C14E68A6EB5C
:1003F0000C0866452BD00DDC032E34D005DC36B35B
:10040000012E19D0022E2FD11BE0112E16D0122E44
:100410002AD119E0B8F5881F19D006DCB8F5803F5D
:1004200015D0B8F5801F1FD111E0B8F5001F0ED010
:10043000B8F5041F18D10AE0CB6815E0CB681B1D86
:1004400012E0CB6808330FE0CB680C330CE08B680C
:100450002BB1012B4FF0080303D0456104E00423C6
:1004600002E0056100E00023FF2A01D8064601E012
:1004700000F104064FEA840501D9A5F12005D6F85C
:10048000008007FA05FC28EA0C0803FA05F548EA9B
:100490000508C6F800804D68ED0070D53E4DAE6988
:1004A00046F00106AE61AD6924F0030605F00105D2
:1004B00000953A4D06EB050CDCF80850A607360F00
:1004C00007FA06F825EA0805DFF8D480404503D18D
:1004D0004FF0000825E052E0DFF8C880404502D127
:1004E0004FF001081DE0DFF8C080404502D14FF019
:1004F000020816E0DFF8B480404502D14FF003084F
:100500000FE0DFF8AC80404502D14FF0040808E06E
:10051000DFF8A080404502D14FF0050801E04FF020
:10052000060808FA06F848EA0508CCF808804D687D
:10053000D9F80060ED024D4601D5164300E0964320
:100540002E604D68DAF80060AD02554601D51643BD
:1005500000E096432E604D68DBF80060AD035D4619
:1005600001D5164300E096432E604D68DEF800602A
:10057000ED03754601D5164300E096432E60641CDA
:100580000A681646E2407FF429AFBDE8F88F000004
:10059000080401400000111000100240000001405A
:1005A00000080140000C014000100140001401400F
:1005B00000180140001C014001488068704700009D
:1005C0001800002002488168027811448160704759
:1005D00018000020074810B5016841F010010160C3
:1005E000032000F0A1F80F2000F006F800F04AF810
:1005F000002010BD0020024030B505461C4887B0E1
:10060000816941F400618161806906A900F400609C
:10061000009001A800F030F900F05EF91549164A83
:10062000B0FBF1F11548491E0260416040F2E7322B
:100630000021C0E903218160816100F015FB040005
:1006400012D10E4800F03EFB04000DD1192000F03D
:100650003DF8102D07D200222946192000F044F859
:100660000748056000E0012407B0204630BD0000C7
:100670000010024040420F00002C0140F400002016
:100680001C0000200F4808B5816941F0010181611B
:10069000816901F001010091C16941F08051C1619E
:1006A000C069002200F0805000900F21901E00F0E1
:1006B0001BF80548416821F0E06141F0007141609C
:1006C00008BD00000010024000000140002809DBC6
:1006D00000F01F02012191404009800000F1E0205C
:1006E000C0F8001170470000F0B40E4B1B680C46B8
:1006F000C3F30223C3F10705042D00D90425191DF6
:10070000072901D2002300E0DB1E012606FA05F1CD
:10071000491E214099409E40761E16403143F0BC50
:1007200000F060BE0CED00E0064900F0070208682A
:100730004FF6FF03184040EA0220034A10430860C6
:10074000704700000CED00E00000FA052DE9F047CD
:100750000F46050061D0434E306800F00700B842F4
:1007600009D2306820F0070038433060306800F06C
:100770000700B84251D128683B4C810712D5400789
:1007800003D5606840F4E06060602878000703D516
:10079000606840F4605060606068A96820F0F00014
:1007A000084360602878C00728D06868012810D006
:1007B0002168022810D0890700292EDA616821F00B
:1007C000030101436160FFF7F7FE804641F288397B
:1007D0000DE021688903EFE78901EDE7FFF7ECFE03
:1007E000A0EB0801494502D90320BDE8F087606805
:1007F000696800F00C00B0EB810FEFD1306800F0B9
:100800000700B8420BD9306820F007003843306049
:10081000306800F00700B84201D00120E5E72878F1
:10082000400705D56068E96820F4E060084360602F
:100830002878000706D56068296920F4605040EAEE
:10084000C100606000F058F86168084AC1F3031104
:10085000515CC8400649086006480068FFF7CCFEB6
:100860000020C2E700200240001002404A2F00088A
:10087000240000201C0000200F2202600C4A536854
:1008800003F003034360536803F0F003836053688D
:1008900003F4E063C36052684FF4E06303EAD202FA
:1008A00002610448006800F007000860704700001B
:1008B00000100240002002400448054900684968D1
:1008C000044AC1F30221515CC84070472400002053
:1008D000001002405A2F0008044805490068496882
:1008E000044AC1F3C221515CC84070472400002073
:1008F000001002405A2F00080E4A51680E4801F0BD
:100900000C03042B11D0082B0FD10C48C1F38343E7
:10091000C903C05C0AD55168084AC1F34041921E20
:10092000515C054A5043B0FBF1F07047044948431D
:10093000704700000010024000127A003A2F0008B1
:1009400000093D002DE9F84F040070D02078C04D1B
:10095000C00749D06868C0F38100012807D06868E3
:10096000C0F38100022809D16868C00306D5286851
:10097000800339D560680028E7D035E06068B0F5BD
:10098000803F0BD010B1B0F5A02F11D0286820F413
:1009900080302860286820F4802002E0286840F435
:1009A00080302860606890B1FFF706FE06460AE0D6
:1009B000286840F480202860F0E700BFFFF7FCFDC6
:1009C000801B642873D828688003F7D50CE0FFF7F4
:1009D000F3FD064605E000BFFFF7EEFD801B64282F
:1009E000F0D828688003F7D420789A4E80074FF01B
:1009F00001094FF0000839D5686810F00C0F07D0D6
:100A00006868C0F38100022809D16868C00306D471
:100A10002868800714D52069012808D110E02069D2
:100A2000B0B1C6F80090FFF7C7FD074605E00AE140
:100A3000FFF7C2FDC01B0228C4D828688007F7D57D
:100A40002868616920F0F80040EAC10028600DE0E4
:100A5000C6F80080FFF7B0FD074604E0FFF7ACFDE5
:100A6000C01B022823D828688007F7D42078000705
:100A70002CD57948A169D9B1C0F80090FFF79CFD49
:100A8000074604E0FFF798FDC01B02280FD8686AEC
:100A90008007F7D571484FF4FA510068B0FBF1F0C8
:100AA000009000BF0098411E0091FAD20EE080E055
:100AB000C0F80080FFF780FD074604E0FFF77CFDEB
:100AC000C01B022875D8686A8007F7D420784007D1
:100AD00060D5E8690027C00008D4E86940F080507C
:100AE000E861E869012700F0805000905C480168E7
:100AF000C90513D40168834641F480710160FFF792
:100B00005BFD824606E000BFFFF756FDA0EB0A0042
:100B100064284ED8DBF80000C005F5D5E068012850
:100B20000AD008B1052813D0286A20F001002862F5
:100B3000286A20F0040002E0286A40F001002862E0
:100B4000E06841F2883B98B1FFF736FD82460BE042
:100B5000286A40F004002862EEE700BFFFF72CFD92
:100B6000A0EB0A0159455AD8286A8007F6D50CE04F
:100B7000FFF722FD824605E0FFF71EFDA0EB0A010C
:100B800059454CD8286A8007F6D41FB1E86920F08F
:100B90008050E861E06988B36968C1F38101022986
:100BA00044D00228C6F8608004D0FFF705FD044653
:100BB00038E034E0FFF700FD074604E0FFF7FCFCF7
:100BC000C01B02282BD828688001F7D4206AB0F512
:100BD000803F05D16868A16820F400300843686050
:100BE000D4E908010843696821F474110843686076
:100BF000C6F86090FFF7E0FC044606E025E000BF81
:100C0000FFF7DAFC001B022809D828688001F7D515
:100C10001BE000BFFFF7D0FC001B022802D9032015
:100C2000BDE8F88F28688001F4D40EE00128F7D0E1
:100C30006868226A00F48031914204D1616A00F44C
:100C40007010884201D00120EAE70020E8E70000A8
:100C50000010024000004242800442422400002072
:100C6000007000407047704710B5040003D094F83E
:100C70003D0010B107E0012010BD002084F83C00C9
:100C8000204600F01EF8022084F83D00211D206857
:100C900000F08CFA012084F8460084F83E0084F8C5
:100CA0003F0084F8400084F8410084F8420084F852
:100CB000430084F8440084F8450084F83D00002097
:100CC00010BD704790F83D10012901D001207047F8
:100CD000022180F83D100168CA6842F00102CA6032
:100CE00000680E4988420ED00D4988420BD0B0F101
:100CF000804F08D00B49884205D00B49884202D06A
:100D00000A49884204D1816801F00701062903D00D
:100D1000016841F00101016000207047002C014092
:100D2000003401400004004000080040000C004076
:100D300070472DE9F04104460068C66805694FF028
:100D40000007A90713D5B10711D5F91E01610120CC
:100D50002077206880698007204602D0FFF7E8FFEF
:100D600004E000F07EF8204600F07CF82777680762
:100D700016D5700714D521686FF0040008610220B1
:100D800020772068806910F4407F204602D0FFF76A
:100D9000CFFF04E000F065F8204600F063F8277705
:100DA000280715D5300713D521686FF008000861B2
:100DB000042020772068C0698007204602D0FFF712
:100DC000B7FF04E000F04DF8204600F04BF827771D
:100DD000E80616D5F00614D521686FF010000861FA
:100DE000082020772068C06910F4407F204602D098
:100DF000FFF79EFF04E000F034F8204600F032F8E0
:100E00002777E80708D0F00706D021686FF00100C7
:100E10000861204600F028F8280608D5300606D5D7
:100E200021686FF0800008612046FFF71BFF68060D
:100E300008D5700606D521686FF04000086120468D
:100E400000F01CF8A8060AD5B00608D521686FF096
:100E5000200008612046BDE8F041FFF704BFBDE86F
:100E6000F08170477047000000680349884201D153
:100E7000FFF7A8BB70470000002C0140704770B519
:100E8000040004D094F84100002510B106E00120D0
:100E900070BD84F84050204600F024F8242084F8E7
:100EA00041002068C16821F40051C160204600F073
:100EB000F3F92068016921F49041016120684169DA
:100EC00021F02A0141612068C16841F40051C160EC
:100ED0006564202084F8410084F8420065630020A6
:100EE00070BD000030B585B00024009401940294D8
:100EF000039400681449884224D11448816941F45C
:100F000080418161816901F480410491816941F0EE
:100F10000401816180690E4D00F0040004904FF4DB
:100F2000007000900220019003200390694628463B
:100F3000FFF746FA2815CDE90004694628460294D1
:100F4000FFF73EFA05B030BD003801400010024006
:100F5000000801402DE9F843044690F84100984606
:100F600016460D46202802D00220BDE8F88385B140
:100F70007EB100206064212084F84100FFF71CFB53
:100F8000A6848146E684A0682027B0F5805F02D061
:100F900003E00120E9E7206910B12E4600250EE0AC
:100FA00000260CE08021204600F0D2F9A8B9C6B195
:100FB00016F8010B21684860E08C401EE084E08C4C
:100FC0004B464FF00002CDF800800028EAD14FF0E8
:100FD0004001204600F0BCF940B184F84170032084
:100FE000C3E735F8020BC0F30800E3E784F841706B
:100FF0000020BAE7FEE7000010B5044A00210448CB
:1010000000F04EFB0349486010BD0000142F00089B
:10101000C51000080000002000B585B00020039036
:101020001648816941F010018161816901F0100168
:101030000491816941F0040181618069694600F091
:1010400004000490052000900D48019001200290BA
:101050000C48FFF7B5F9002205210620FFF744FBF5
:101060000620FFF733FB002205210820FFF73CFB99
:101070000820FFF72BFB05B000BD00000010024068
:1010800000001110001001400C4810B50A49016021
:101090004FF4E1314160002181600C22C160C0E960
:1010A00004128161C161FFF7EAFE002803D0BDE8A8
:1010B0001040FFF7FBB810BD00380140AC00002025
:1010C000FEE7FEE708B501F027F80F484FF47A7500
:1010D00000900123002229460CA001F09DFE0D4C3A
:1010E00002230122A0600C48009069000BA001F0CF
:1010F00093FEE060002001F00DF901F02DF8284684
:1011000000F092FAFBE700001120000854696D65B9
:1011100072310000000000203920000854696D651C
:101120007232000010B54FF0E020006901F01AFDA6
:10113000012803D0BDE8104001F048BA10BD30B519
:101140008FB028216846FFF776F814210AA8FFF728
:1011500072F801210804CDE9001000240294022550
:101160000491CDE907504FF4E01009906846FFF76D
:10117000E9FB08B172B6FEE70F20CDE90A054FF48E
:101180008060CDE90C4002210AA80E94FFF7DEFA38
:10119000002801D072B6FEE70FB030BD70470000E6
:1011A0000148FFF7C6BD0000F4000020F0B502685A
:1011B000204C214D214E224F224B4FF0804CA0421B
:1011C00009D0984207D0604505D0A84203D0B0426C
:1011D00001D0B84204D122F0700E4A6842EA0E02F1
:1011E000A04209D0984207D0604505D0A84203D05C
:1011F000B04201D0B84203D122F44075CA682A43F4
:101200004D6922F080022A4302608A68C2620A683D
:101210008262A04201D0984201D109690163012193
:1012200041610169C90703D0016921F00101016130
:10123000F0BD0000002C0140000400400008004008
:10124000000C00400034014001680C3151E8002FCF
:1012500022F4907241E80023002BF5D1016814318B
:1012600051E8002F22F0010241E80023002BF5D1C4
:10127000016B012909D101680C3151E8002F22F0DE
:10128000100241E80023002BF5D1202180F8421004
:10129000002101637047000070B5044600680169D1
:1012A000E26821F44051114301612169A0680843BB
:1012B000616908432168CA6841F20C639A4302439A
:1012C000CA6020684169A26921F4407111434161FB
:1012D0001E492068884202D1FFF7FEFA01E0FFF7BD
:1012E000EBFA00EBC00101EB0012606864218000A2
:1012F000B2FBF0F3B3FBF1F36FF018067343B2FBEC
:10130000F0F5B2FBF0F605EB8305322303EB051590
:10131000B5FBF1F5B6FBF1F605F0F00505EB0615AA
:10132000B2FBF0F6B2FBF0F0B0FBF1F06FF0180298
:10133000504306EB800003EB0010B0FBF1F0216896
:1013400000F00F002844886070BD000000380140A4
:101350002DE9F843984617460D460446089E24E0BA
:10136000701C22D0FFF728F9A0EB0800B0421AD871
:10137000CEB12068C168490717D5802D15D0402D02
:1013800013D00168C94309070FD4016800254068DC
:1013900000902046FFF758FF0820606484F8405012
:1013A0000120BDE8F8830320FBE72068006835EAE8
:1013B000000004D00020B842D2D00020F1E7012084
:1013C000F9E7FEE70FB4054B10B503A9044A0298EC
:1013D00000F028F810BC5DF814FB0000DD150008D3
:1013E000A80000200907090E002804DB00F1E02016
:1013F00080F80014704700F00F0000F1E02080F842
:10140000141D704702E008C8121F08C1002AFAD153
:1014100070477047002001E001C1121F002AFBD174
:10142000704700002DE9FF4F8BB09A460F460546E6
:10143000002606E025280BD052460D9990476D1CDA
:10144000761C28780028F5D10FB03046BDE8F08F23
:101450000024A0460122604900E0044315F8013F42
:10146000203B02FA03F00842F7D128782E2817D142
:1014700015F8010F44F004042A280ED06FF02F0253
:101480002878A0F1300109290AD808EB880102EB7D
:10149000410100EB01086D1CF2E757F8048B6D1C4D
:1014A000287869283ED006DC0028CDD063280BD0F0
:1014B000642804D136E0732810D075284BD05246EA
:1014C0000D999047761C85E017F8040B8DF8000005
:1014D00000208DF80100E946012003E057F8049B45
:1014E0004FF0FF3061074FF0000401D40AE0641CA4
:1014F00044450DDA8442FADB19F804100029F6D1CC
:1015000006E0641C8442FCDB19F804100029F8D1C1
:10151000264404E019F8010B52460D999047641EC9
:10152000F8D257E001CF4FF00A0B002802DA404210
:101530002D2102E0210504D52B218DF82410012155
:1015400003E0E10705D02021F7E70DF1200908911C
:101550000CE00021F9E701CF4FF00A0BF9E75946FB
:10156000FEF774FE01F1300209F8012D0028F6D1D2
:10157000ADEB090000F1200B600701D44FF001082A
:10158000D84502DDA8EB0B0000E0002080460024D7
:1015900006E009A85246005D0D999047641C761C30
:1015A00008988442F5DB04E0302052460D999047BC
:1015B000761CB8F10001A8F10108F5DC05E019F886
:1015C000010B52460D999047761CBBF10001ABF11F
:1015D000010BF4DC6D1C34E70928010013B54FF052
:1015E000FF33012269460248FFF7B4FC00981CBD96
:1015F000AC000020FEF7EEFFFFF7A1FDFFF70CFDAA
:10160000FFF742FD04A0FFF7DDFE00F01BF8FFF737
:10161000F3FC00F029F8FEE748656C6C6F20576F0B
:10162000726C64210D0A000010B5EFF3058111B151
:101630006FF0050403E0002408B100F045FE2046E9
:1016400010BD0000EFF3058010B16FF0050070478A
:101650000448016811B14FF0FF307047012101606B
:10166000002070477800002010B5EFF3058010B11E
:101670006FF0050010BD08480168012902D04FF045
:10168000FF3010BD054A002182F8141D02210160BF
:1016900000F0CAFE002010BD780000200BE000E042
:1016A0002DE9FF414FEA01034FF00005EFF30581FB
:1016B000039549BB40B38027182100244AB316681C
:1016C00006B1344696691EB13146761E382E02D2D6
:1016D0001679F60703D0002004B0BDE8F081566902
:1016E00006B1B708D2F808C0BCF1000F0DD0D5681C
:1016F0005C2D18D312693AB136B18DE806103A461E
:10170000214601F004FA03900DE0D6685EB9126933
:101710004AB903AACDE90012BAB2214601F0CAF9CA
:10172000012800D003950398D6E700002DE9F04189
:10173000134C0F460546E6682068001D00F090FC3B
:10174000681C07D137B12168BDE8F0410D48091D7B
:1017500000F0D6BC20683544B5424560216805D20A
:10176000A06BBDE8F041091D00F0B2BC606B091D23
:1017700000F0AEFCA06A854200D2A562BDE8F0810F
:10178000280000202C0600202DE9F041054600F03D
:10179000C3FC2D4CA068401CA06020682B4F10B1EA
:1017A000606930B32BE02560A068012827D10026AE
:1017B00006EB860007EB800000F07CFC761C382EE0
:1017C000F6D3234800F076FC2148143000F072FC78
:1017D0001F48283000F06EFC1D483C3000F06AFCC9
:1017E0001B48503000F066FC194860631430A06359
:1017F00005E02068E96AC06A884200D82560606A0E
:10180000401C60626864E86A2169884200D92061EE
:1018100000EB800007EB8000291D00F071FC00F058
:101820009BFC606900280CD02068E96AC06A884285
:1018300007D208494FF080500860BFF34F8FBFF3C5
:101840006F8FBDE8F0810000280000207C0100209F
:10185000DC05002004ED00E038B500F05DFC104C24
:101860002068C8B90F4800F025FC0E48143000F07D
:1018700021FC0C48E060143020610A4B0020F03B52
:10188000009003F1500210210A2000F0B5FE206004
:1018900010B105A100F0E2FCBDE8384000F05CBCEE
:1018A0006400002030070020546D725100000000D9
:1018B00030B4026C0B46002A0BD0C1681144C160E1
:1018C0008468A14201D30168C16030BC1846FEF7AC
:1018D00099BC30BC70472DE9F041856B1746044632
:1018E0000026026C82B1C7B1E068FEF78BFCE168AC
:1018F000206C091AE1602268914202D2A168081A9C
:10190000E060022F16D017E02068A8B9A06801F0A7
:10191000A9F906460020A0600EE06068FEF772FCA0
:10192000216C606808446060A168884204D3206824
:10193000606001E005B16D1E6D1CA5633046BDE819
:10194000F08110B5044690F8590058B101280CD028
:1019500002280FD0502080F31188BFF34F8FBFF3C0
:101960006F8FFEE7206B00F00BFC2046BDE81040B7
:1019700000F006BC10BD000010484FF4A041420723
:1019800006D0C01D0D4920F00700411AC1F5A04145
:101990000B4A00230144C2E900030839183A21F038
:1019A000070111604B600B600B1AC0E900139360D4
:1019B0004FF000405360506170470000100E00204F
:1019C00094000020144E154CA6F29C474FF080580E
:1019D000DFF84C9012E000BF00F09EFBF068C56895
:1019E000281D00F03DFBA068401EA0606068401EFE
:1019F000606000F0B1FB2846FFF7A3FF6068002895
:101A0000EAD138680128F9D9C9F80080BFF34F8FAF
:101A1000BFF36F8FF2E700001806002028000020B7
:101A200004ED00E070B51D46049C51B1C4F80020DF
:101A3000C4E90F010121204600F012FE84F84C5049
:101A400070BD2460F4E700002DE9F05F8846DDE911
:101A50000B941546834691009A460A9EA522206B58
:101A6000FEF7E2FB6FF00301206B01EB85010844F8
:101A700020F00707780707D0502080F31188BFF3C4
:101A80004F8FBFF36F8FFEE70025B8F1000F0FD027
:101A90005FF00000221818F8001082F8341018F8CF
:101AA000001011B1401C1028F4D384F8435001E019
:101AB00084F83450382E00D33726E662C4E9136523
:101AC000201D00F002FB04F1180000F0FEFA246172
:101AD000C6F138006462A061656584F858505246CA
:101AE0005946384600F082FA2060B9F1000F01D063
:101AF000C9F80040BDE8F09F2DE9F0471E46DDE93A
:101B0000089417460D00804615D0002C11D0FFF721
:101B1000A3FE04F11801C4F8008081E86002201DD2
:101B200000F0D3FA002F04D014F8280F40F004007E
:101B30002070BDE8F087502080F31188BFF34F8FED
:101B4000BFF36F8FFEE7000030B5114900E011468A
:101B50000A688242FBD34B685C18844203D1406818
:101B600018444860084643681C18944209D1084C40
:101B7000183C2468A24209D052681A4442600A689C
:101B800012680260814200D0086030BD0460F9E74D
:101B90009400002070B5002441600B4D006191421B
:101BA00006D8D11A8269914206D2011D286907E040
:101BB0009A4203D2994201D3012403E0011DE8684F
:101BC00000F086FA204670BD6400002010B504467F
:101BD00000F0A2FAA06B28B15FF0000400F0BCFA9C
:101BE000204610BD0124F9E730B589B03C4D6EE0C8
:101BF0000498002806DADDE90601059A9047049862
:101C0000002864DB069C606910B1201D00F028FAF2
:101C100003A800F0D7F8024604980A2857D2DFE854
:101C200000F00505052D334A05052D3394F82800ED
:101C300040F0010084F828000599A069059B014443
:101C40002046FFF7A7FF68B3216A2046884794F82B
:101C5000280040073BD5002000900598A16900238B
:101C600042181946204601F021F9D8B9502080F3D6
:101C70001188BFF34F8FBFF36F8FFEE714F8280F63
:101C800020F00100207022E094F8280040F00100CC
:101C900084F828000598A06128B1811813462046D1
:101CA000FFF778FF13E0502080F31188BFF34F8FC8
:101CB000BFF36F8FFEE794F82800810703D4204616
:101CC00000F05EFA03E020F0010084F82800002212
:101CD00004A9286800F018FE002889D109B030BD99
:101CE000640000202DE9FC410F46054600F0E0FBB2
:101CF00001A800F067F80446019818B101F02AF82D
:101D0000BDE8FC81254EAFB130690068D0B3002733
:101D1000291B3A46306800F0B5FA01F01BF800289C
:101D2000EED11F494FF080500860BFF34F8FBFF3D3
:101D30006F8FE5E7A542EBD801F00CF8F068274675
:101D4000C068C468201D00F08BF994F82800410792
:101D500019D5A0692B4641193A462046FFF71AFFCC
:101D6000A8B100200346014600902A46204601F013
:101D70009DF860B9502080F31188BFF34F8FBFF3F7
:101D80006F8FFEE707E020F0010084F82800216A49
:101D900020468847B4E70127BAE700006400002026
:101DA00004ED00E00648416B096829B1416BC96840
:101DB000C9684968816270474FF0FF31FAE7000057
:101DC0002800002070B5054600F0DAFE064E0446F5
:101DD000B068844203D200F009F8012000E000203E
:101DE00028602046B46070BD64000020F8B5194D2D
:101DF00020E0C068C4680668201D00F031F9216A3F
:101E00002046884794F82800400713D5A06930443D
:101E1000B04206D924616060211DE86800F058F9DD
:101E200008E000200346014600903246204601F0BB
:101E30003DF838B1E86801680029DAD12969C5E9B7
:101E40000310F8BD502080F31188BFF34F8FBFF30C
:101E50006F8FFEE76400002008484068401C4FF088
:101E6000500080F3118804D0BFF34F8FBFF36F8F02
:101E7000FEE7BFF34F8FBFF36F8FFEE79C0000209C
:101E8000074CE068016841B1C0680021D0F800004B
:101E9000FFF728FFFFF7A8FEF3E701210020F7E78F
:101EA000640000202DE9F041044600F035F994F972
:101EB000455004F1240609E0606A48B1304600F05C
:101EC00011FF08B100F076FA6D1E6DB2002DF3DC43
:101ED0004FF0FF3684F8456000F03EF900F01CF941
:101EE00094F9445004F1100709E0206948B13846DC
:101EF00000F0F8FE08B100F05DFA6D1E6DB2002D25
:101F0000F3DC84F84460BDE8F04100F025B900003E
:101F10002DE9F0410546002700F0CAFA324E30683C
:101F200008B9FFF729FD706905424ED1C5B30835E0
:101F300068070ED005F00700C0F1080005446807E7
:101F400007D0502080F31188BFF34F8FBFF36F8FFE
:101F5000FEE72DB37068854237D823481830014614
:101F60000C6801E020460C466168A94202D2216853
:101F70000029F7D131688C4227D0076821680160B9
:101F800060680837411B10290FD96019420708D033
:101F9000502080F31188BFF34F8FBFF36F8FFEE7A0
:101FA00013E041606560FFF7CFFD61687068401A1B
:101FB0007060B268904200D2B06070690143002046
:101FC000C4E90001F068401CF06000F0C3FE78072F
:101FD00007D0502080F31188BFF34F8FBFF36F8F6E
:101FE000FEE73846BDE8F0817C00002010B5031FF5
:101FF0004FF080741C601B1F21F001011960191F34
:10200000024B0B60143940380A6010BD591E00089D
:1020100003480188491C89B2018002A0FFF7D2B9A8
:102020000000002074696D6572312076616C756501
:10203000203D2025640D0A0003484188491C89B2CF
:10204000418002A0FFF7BEB90000002074696D65F1
:1020500072322076616C7565203D2025640D0A0082
:10206000D0E9013201699A60D0E901235A604A68D7
:10207000824201D182684A60002202610868401EE3
:102080000860086870470000034B036003F15C00C0
:10209000086080201060704758070020044B0360E0
:1020A00003F15C0008604FF480701060704700001E
:1020B000B409002000F108014FF0FF32C0E901121D
:1020C000C16001610021016070470021016170471A
:1020D00030B50B685A1C02D000F1080202E0026918
:1020E00004E02246546825689D42FAD953684B6043
:1020F00099608A60516008610168491C016030BDC7
:1021000042684A6093688B60936859609160086187
:102110000168491C01607047502080F31188BFF3AB
:102120004F8FBFF36F8F0A494868401C48600128F1
:102130000CD10848006810F0FF0F07D0502080F342
:102140001188BFF34F8FBFF36F8FFEE7704700001A
:102150009C00002004ED00E00849486828B1401EBA
:10216000486001D180F311887047502080F31188B6
:10217000BFF34F8FBFF36F8FFEE700009C0000207E
:1021800070B500282AD0164DA0F10804606869696E
:10219000084207D1502080F31188BFF34F8FBFF35F
:1021A0006F8FFEE722683AB1502080F31188BFF3A9
:1021B0004F8FBFF36F8FFEE78843606000F078F9C0
:1021C00060686968084468602046FFF7BDFC2869BC
:1021D000401C2861BDE8704000F0BCBD70BD00002F
:1021E0007C0000204FF0E020002101618161054961
:1021F0004FF47A720968B1FBF2F1491E416107217F
:10220000016170472400002010B5FDF7E5FF11497A
:1022100010280ED300F1E02090F8F0030A789042E5
:1022200007D2502080F31188BFF34F8FBFF36F8F19
:10223000FEE709480068896800F4E060884207D931
:10224000502080F31188BFF34F8FBFF36F8FFEE7ED
:1022500010BD00009C0000200CED00E010B5084B04
:10226000002200BF53F832401CB1521C082AF9D397
:1022700010BD43F8321003EBC201486010BD0000EE
:102280003C01002070B515460E460446FFF744FF9A
:1022900094F944100020491C01D184F8440094F9B9
:1022A0004510491C01D184F84500FFF755FFA06B8C
:1022B00028B92A46314604F1240000F099F8204656
:1022C000BDE87040FFF7EEBD10B5020014D00F4816
:1022D000006B38B1502080F31188BFF34F8FBFF3EC
:1022E0006F8FFEE700F0E4F800211046FFF71EFABA
:1022F00000F030FD002807D105494FF080500860FC
:10230000BFF34F8FBFF36F8F10BD00002800002078
:1023100004ED00E070B50546FFF7FEFE1E4C05B962
:102320002568281DFFF79CFEA86A18B105F1180062
:10233000FFF796FE606A401C60622068854207D104
:10234000291D1648FFF7DCFE6068401C606007E04E
:10235000A068401EA0602846FFF7F3FAFFF722FDB1
:10236000FFF7FAFE6069002814D02068854211D179
:10237000206B38B1502080F31188BFF34F8FBFF32B
:102380006F8FFEE706494FF080500860BFF34F8F14
:10239000BFF36F8F70BD00002800002018060020DA
:1023A00004ED00E002490A6A0260C96841607047B2
:1023B0002800002001490120C86170472800002042
:1023C00010B50C4650B1094909681831FFF780FE75
:1023D0002046BDE810400121FFF7A8B9502080F346
:1023E0001188BFF34F8FBFF36F8FFEE728000020E7
:1023F00070B514460D4668B10A4909681831FFF7EF
:102400007FFE0CB14FF0FF3521462846BDE87040F5
:10241000FFF78CB9502080F31188BFF34F8FBFF3C3
:102420006F8FFEE72800002030B587B000240394AA
:1024300005AA04A903A80494FFF726FEDDE9030119
:102440000094CDE90110002315A11748059A00F06A
:102450005EFB164D0028E8621FD000F0F7FC012853
:1024600009D0401C19D1502080F31188BFF34F8F41
:10247000BFF36F8FFEE7502080F31188BFF34F8FBB
:10248000BFF36F8F4FF0FF30A86201206861EC60EE
:1024900007B0BDE8304000F045B807B030BD0000DF
:1024A00049444C4500000000C519000828000020E0
:1024B0000248016B491C016370470000280000209E
:1024C000164810B5016B11B10121C16110BD002189
:1024D000C1610169124A01E0B9B1491E01EB8103F2
:1024E00052F82330002BF7D001EB810302EB83027B
:1024F00002F1080453685B685360A34201D15B6832
:102500005360DA680260016110BD502080F31188C9
:10251000BFF34F8FBFF36F8FFEE70000280000204E
:102520007C0100201CB5264908780190FF20087026
:1025300008788DF800009DF800009DF8002000F05C
:10254000F000904207D0502080F31188BFF34F8FE6
:10255000BFF36F8FFEE79DF800001A4C00F05000AB
:1025600020700720A06005E09DF8002052008DF843
:102570000020401E9DF800201206F5D4A06003281C
:1025800007D0502080F31188BFF34F8FBFF36F8FB8
:10259000FEE74FF44070A060019808700A48016897
:1025A00041F470010160016841F070410160FFF782
:1025B00019FE00206060FDF7D9FD00201CBD000061
:1025C00000E400E09C00002020ED00E010B5502069
:1025D00080F31188BFF34F8FBFF36F8F00F0DEFAE7
:1025E00018B104494FF080500860002080F3118832
:1025F00010BD000004ED00E038B5049D18B153B1E2
:10260000CAB181B120E0502080F31188BFF34F8F11
:10261000BFF36F8FFEE7502080F31188BFF34F8F19
:10262000BFF36F8FFEE7502080F31188BFF34F8F09
:10263000BFF36F8FFEE739B1502080F31188BFF3ED
:102640004F8FBFF36F8FFEE750241C46012384F8A1
:1026500046302B460094FFF7E5F9204638BD0000D0
:1026600070B50D46040025D0FFF756FDD4E90F20C4
:10267000216802FB0011A1600021A1632168616053
:102680000A46D4E90F01401E00FB0121E16021460A
:102690004FF0FF3001F8440F487004F110008DB185
:1026A000FFF708FD04F12400FFF704FDFFF754FDD8
:1026B000012070BD502080F31188BFF34F8FBFF30E
:1026C0006F8FFEE721690029F0D000F00BFB002896
:1026D000ECD004494FF080500860BFF34F8FBFF338
:1026E0006F8FE3E704ED00E02DE9FF4782B01D4660
:1026F0008A464FF00008040003D0BAF1000F08D05A
:1027000011E0502080F31188BFF34F8FBFF36F8F1C
:10271000FEE7206C38B1502080F31188BFF34F8F53
:10272000BFF36F8FFEE7022D0AD1E06B012807D0BF
:10273000502080F31188BFF34F8FBFF36F8FFEE7F8
:1027400000F010FA3F4F4FF000094FF0805648B9A3
:10275000049838B1502080F31188BFF34F8FBFF336
:102760006F8FFEE7FFF7D8FCA06BE16B884207D3C1
:10277000022D05D00498D0B1B8F1000F1AD01EE098
:102780002A4651462046FFF7A6F8616A19B104F1BE
:10279000240000F0A7FA20B13E60BFF34F8FBFF3D3
:1027A0006F8FFFF7D9FC012006B0BDE8F087FFF777
:1027B000D3FC22E06846FFF7F5FD4FF00108FFF774
:1027C000CBFCFFF775FEFFF7A7FC94F94400401C13
:1027D00001D184F8449094F94500401C01D184F85B
:1027E0004590FFF7B9FC04A9684600F029F930B11B
:1027F0002046FFF757FB00F0ADFA0020D4E7FFF7C3
:102800008BFCA06BE16B884213D1FFF7A5FC04F1B0
:1028100010000499FFF7D4FD2046FFF743FB00F0BA
:1028200099FA00289ED13E60BFF34F8FBFF36F8FA0
:1028300098E7FFF791FC2046FFF734FB00F08AFA97
:1028400090E7000004ED00E02DE9F0471F469046B8
:102850008946040003D0B9F1000F08D011E05020E0
:1028600080F31188BFF34F8FBFF36F8FFEE7206CAB
:1028700038B1502080F31188BFF34F8FBFF36F8FB3
:10288000FEE7022F0AD1E06B012807D0502080F329
:102890001188BFF34F8FBFF36F8FFEE7FFF7B4FCD4
:1028A0005020EFF3118680F31188BFF34F8FBFF3F1
:1028B0006F8FA06BE16B884206D3022F04D00020FB
:1028C00086F31188BDE8F08794F94550A06B3A462D
:1028D00049462046FEF7FFFF681C04D06D1C84F8B3
:1028E00045500120ECE7606A0028FAD004F124008A
:1028F00000F0F8F90028F4D0B8F1000FF1D0012170
:10290000C8F80010EDE700002DE9F747002683B076
:102910008A46040003D0BAF1000F08D011E050201D
:1029200080F31188BFF34F8FBFF36F8FFEE7206CEA
:1029300038B1502080F31188BFF34F8FBFF36F8FF2
:10294000FEE700F00FF9DFF8F4804FF000094FF0D8
:10295000805748B9059838B1502080F31188BFF3EB
:102960004F8FBFF36F8FFEE7FFF7D6FBA56BC5B1A7
:1029700051462046FEF79CFF6D1EA563206950B1AD
:1029800004F1100000F0AEF928B1C8F80070BFF3F0
:102990004F8FBFF36F8FFFF7DFFB012006B0BDE85D
:1029A000F087059808B11EB106E0FFF7D5FB27E0D8
:1029B0006846FFF7F7FC0126FFF7CEFBFFF778FD2F
:1029C000FFF7AAFB94F94400401C01D184F844901D
:1029D00094F94500401C01D184F84590FFF7BCFBF9
:1029E00005A9684600F02CF8002820460AD0FFF719
:1029F00059FA00F0AFF92046FFF7E8F80028B3D005
:102A00000020CBE7FFF7E2F890B104F1240005992C
:102A1000FFF7D6FC2046FFF745FA00F09BF90028A7
:102A2000A2D1C8F80070BFF34F8FBFF36F8F9BE741
:102A30002046FFF737FA00F08DF995E704ED00E046
:102A40002DE9F0410C46050011D0C4B1FFF764FB3D
:102A5000174BDA686E682068911B471C17D02F68E7
:102A60001B6A9F4219D0964217D8012410E05020CB
:102A700080F31188BFF34F8FBFF36F8FFEE75020B5
:102A800080F31188BFF34F8FBFF36F8FFEE70024F1
:102A9000FFF762FB2046BDE8F081884205D9401A65
:102AA00020602846FFF77EFCF1E700202060DCE78D
:102AB000280000202DE9FF5F8346DDE90E87994657
:102AC00016468A469000FFF723FA05001CD05C20CA
:102AD000FFF71EFA040014D00020256384F8590083
:102AE000CDE90240CDE900874B4632465146584673
:102AF000FEF7AAFF2046FEF747FE012004B0BDE81E
:102B0000F09F2846FFF73CFB4FF0FF30F6E7F0B5AB
:102B100085B0DDE90B640A9DA6B1DCB15C270097A6
:102B20002663022684F85960002604AFCDE90246E8
:102B3000CDE90057FEF788FF2046FEF725FE0498F2
:102B400005B0F0BD502080F31188BFF34F8FBFF365
:102B50006F8FFEE7502080F31188BFF34F8FBFF3D4
:102B60006F8FFEE70548416919B1006B18B100206D
:102B700070470120704702207047000028000020A5
:102B80000148C068704700002800002010B5FFF71A
:102B90003BFB0148C06810BD280000202DE9F04132
:102BA0002E4C0027206B28B1A069401CA06138463C
:102BB000BDE8F081E668761CE66013D1606B0068C2
:102BC00038B1502080F31188BFF34F8FBFF36F8F60
:102BD000FEE7606BA16B6163A063206A401C20620A
:102BE000FFF7E0F8A06ADFF87880864209D3606BCF
:102BF0000068A0B1606BC068C5686868864211D281
:102C0000A0622068C06A00EB800158F8210001280A
:102C100000D90127E0690028C9D00127C7E74FF094
:102C2000FF30EDE7281DFFF71BFAA86A18B105F180
:102C30001800FFF715FAE86A2169884200D9206177
:102C400000EB800108EB8100291DFFF759FAE86AC3
:102C50002168C96A8842CAD30127C8E72800002032
:102C60007C01002070B504004FF0000133D01B4DF3
:102C70002868844207D0502080F31188BFF34F8F1B
:102C8000BFF36F8FFEE7206D38B1401E2065E36C07
:102C9000E26A9A421FD040B11DE0502080F31188B3
:102CA000BFF34F8FBFF36F8FFEE7201DFFF7D8F9FB
:102CB000E06CE062C0F13800A061E06A29698842F6
:102CC00000D92861064900EB800001EB8000211D3E
:102CD000FFF716FA0121084670BD00002800002009
:102CE0007C01002070B5C068C46854B104F11800BC
:102CF0000646FFF7B5F9144D286B50B1314613481D
:102D000015E0502080F31188BFF34F8FBFF36F8F12
:102D1000FEE7201DFFF7A4F9E06A2969884200D97F
:102D200028610B4900EB800001EB8000211DFFF7BB
:102D3000E7F9E06A2968C96A884202D90120E86196
:102D400070BD002070BD0000280000200406002097
:102D50007C0100202DE9F0472C4D00242746286BEC
:102D600038B1FFF7D9F9286B401E2863286B40B1B2
:102D700046E0502080F31188BFF34F8FBFF36F8F71
:102D8000FEE7A968224E0120D1B3A6F591698046DD
:102D90003068E0B1F068C46804F11800FFF760F92A
:102DA000201DFFF75DF9E06A2969884200D9286192
:102DB00000EB800109EB8100211DFFF7A1F9E06A1A
:102DC0002968C96A8842E3D3C5F81C80E0E70CB1E2
:102DD000FEF7E8FFAC694CB14FEA0806FFF7DEFEEC
:102DE00000B1EE61641EF9D10020A861E86938B134
:102DF0000849012738070860BFF34F8FBFF36F8F73
:102E0000FFF7AAF93846BDE8F08700002800002047
:102E10000406002004ED00E02DE9FC4781461E4633
:102E2000174688462C200A9DFFF772F804000AD046
:102E3000002084F82800CDE9005433463A46414644
:102E40004846FEF759FE2046BDE8FC8710B586B01F
:102E5000FEF702FD114C2068B8B1002003900490E9
:102E600005AA04A903A8FFF719F9DDE90321082041
:102E70008DE8070000230AA10B48059AFFF747FEDB
:102E8000606010B106B0012010BD502080F31188A1
:102E9000BFF34F8FBFF36F8FFEE700006400002089
:102EA000546D722053766300811E00082DE9FF41A6
:102EB0001E46134602000A9D4FF0000016D0144C27
:102EC0002768002F0FD0CDE900130292062917DAE8
:102ED000FFF748FE02284FF000030FD0002269469A
:102EE0002068FFF701FC04B0BDE8F081502080F3BA
:102EF0001188BFF34F8FBFF36F8FFEE72A46EEE7CF
:102F00000023324669463846FFF79EFCEBE7000097
:102F100064000020642F0008000000000000000092
:102F20000000000000000000000200001800000087
:102F30000000000000000000010202030405060773
:102F400008090A0B0C0D0E0F101000000000000005
:102F50000000010203040607080900000000010246
:102F60000304000064656661756C745461736B00E2
:102F7000902F000800000020AC000000041400089E
:102F80003C300008AC00002064610000141400080C
:102F90000000000000000000000000000000000031
:102FA0000000000000000000010000001000000010
:102FB0000000000000127A00000000000000000085
:102FC0000000000000000000000000000000000001
:102FD00000000000000000000000000000000000F1
:102FE00000000000000000000000000000000000E1
:102FF00000000000000000000000000000000000D1
:1030000000000000000000000000000000000000C0
:1030100000000000000000000000000000000000B0
:1030200000000000000000000000000000000000A0
:0C303000AAAAAAAA0000000000000000EC
:0400000508000131BD
:00000001FF
